{
	"data": {
		"bytecode": {
			"linkReferences": {},
			"object": "608060405260016002553480156013575f5ffd5b506127c6806100215f395ff3fe60806040526004361061009b575f3560e01c806386ffeb271161006357806386ffeb27146101775780638864de05146101b3578063a10543fc146101db578063a87430ba14610203578063baccbfdb14610241578063d18469241461027d5761009b565b806302b8c8cd1461009f57806322d638d5146100c757806355ab6ba3146100e3578063578114dc1461010d5780635e3fbdc814610135575b5f5ffd5b3480156100aa575f5ffd5b506100c560048036038101906100c091906114ec565b6102a5565b005b6100e160048036038101906100dc9190611686565b6104a0565b005b3480156100ee575f5ffd5b506100f76107d2565b60405161010491906116ef565b60405180910390f35b348015610118575f5ffd5b50610133600480360381019061012e9190611708565b6107d8565b005b348015610140575f5ffd5b5061015b60048036038101906101569190611708565b610a5c565b60405161016e979695949392919061185f565b60405180910390f35b348015610182575f5ffd5b5061019d60048036038101906101989190611708565b610b77565b6040516101aa91906118d3565b60405180910390f35b3480156101be575f5ffd5b506101d960048036038101906101d49190611708565b610ba0565b005b3480156101e6575f5ffd5b5061020160048036038101906101fc9190611927565b610e5e565b005b34801561020e575f5ffd5b5061022960048036038101906102249190611977565b61129d565b604051610238939291906119e8565b60405180910390f35b34801561024c575f5ffd5b5061026760048036038101906102629190611977565b6112ce565b60405161027491906116ef565b60405180910390f35b348015610288575f5ffd5b506102a3600480360381019061029e9190611708565b61133f565b005b5f60028111156102b8576102b76117d2565b5b5f5f3373ffffffffffffffffffffffffffffffffffffffff1673ffffffffffffffffffffffffffffffffffffffff1681526020019081526020015f205f015f9054906101000a900460ff166002811115610315576103146117d2565b5b14610355576040517f08c379a000000000000000000000000000000000000000000000000000000000815260040161034c90611a8d565b60405180910390fd5b60016002811115610369576103686117d2565b5b81600281111561037c5761037b6117d2565b5b14806103ab5750600280811115610396576103956117d2565b5b8160028111156103a9576103a86117d2565b5b145b6103ea576040517f08c379a00000000000000000000000000000000000000000000000000000000081526004016103e190611b1b565b60405180910390fd5b805f5f3373ffffffffffffffffffffffffffffffffffffffff1673ffffffffffffffffffffffffffffffffffffffff1681526020019081526020015f205f015f6101000a81548160ff0219169083600281111561044a576104496117d2565b5b02179055503373ffffffffffffffffffffffffffffffffffffffff167f8e18574f8a7333e6a87112742a55853a643e2f0550f4e1a3a2c3f1bb2994441d826040516104959190611b39565b60405180910390a250565b60018060028111156104b5576104b46117d2565b5b5f5f3373ffffffffffffffffffffffffffffffffffffffff1673ffffffffffffffffffffffffffffffffffffffff1681526020019081526020015f205f015f9054906101000a900460ff166002811115610512576105116117d2565b5b14610552576040517f08c379a000000000000000000000000000000000000000000000000000000000815260040161054990611bc2565b60405180910390fd5b5f8211610594576040517f08c379a000000000000000000000000000000000000000000000000000000000815260040161058b90611c50565b60405180910390fd5b8134146105d6576040517f08c379a00000000000000000000000000000000000000000000000000000000081526004016105cd90611cde565b60405180910390fd5b5f60025490506040518060e001604052808281526020013373ffffffffffffffffffffffffffffffffffffffff1681526020015f73ffffffffffffffffffffffffffffffffffffffff1681526020018581526020018481526020015f6005811115610644576106436117d2565b5b81526020015f151581525060015f8381526020019081526020015f205f820151815f01556020820151816001015f6101000a81548173ffffffffffffffffffffffffffffffffffffffff021916908373ffffffffffffffffffffffffffffffffffffffff1602179055506040820151816002015f6101000a81548173ffffffffffffffffffffffffffffffffffffffff021916908373ffffffffffffffffffffffffffffffffffffffff16021790555060608201518160030190816107099190611ef9565b506080820151816004015560a0820151816005015f6101000a81548160ff0219169083600581111561073e5761073d6117d2565b5b021790555060c08201518160050160016101000a81548160ff02191690831515021790555090505060025f81548092919061077890611ff5565b91905055503373ffffffffffffffffffffffffffffffffffffffff16817f4683f31d1eecf4c6772415975c4ff9d9522929c8c8711f5386b45f88b4c6daaf856040516107c491906116ef565b60405180910390a350505050565b60025481565b60028060028111156107ed576107ec6117d2565b5b5f5f3373ffffffffffffffffffffffffffffffffffffffff1673ffffffffffffffffffffffffffffffffffffffff1681526020019081526020015f205f015f9054906101000a900460ff16600281111561084a576108496117d2565b5b1461088a576040517f08c379a000000000000000000000000000000000000000000000000000000000815260040161088190611bc2565b60405180910390fd5b5f60015f8481526020019081526020015f2090505f60058111156108b1576108b06117d2565b5b816005015f9054906101000a900460ff1660058111156108d4576108d36117d2565b5b14610914576040517f08c379a000000000000000000000000000000000000000000000000000000000815260040161090b90612086565b60405180910390fd5b3373ffffffffffffffffffffffffffffffffffffffff16816001015f9054906101000a900473ffffffffffffffffffffffffffffffffffffffff1673ffffffffffffffffffffffffffffffffffffffff16036109a5576040517f08c379a000000000000000000000000000000000000000000000000000000000815260040161099c90612114565b60405180910390fd5b33816002015f6101000a81548173ffffffffffffffffffffffffffffffffffffffff021916908373ffffffffffffffffffffffffffffffffffffffff1602179055506001816005015f6101000a81548160ff02191690836005811115610a0e57610a0d6117d2565b5b02179055503373ffffffffffffffffffffffffffffffffffffffff16837f09b76c4f0db4065083154bf90f0cf7494e5ff4cf89ec212fbabac151b7e7476f60405160405180910390a3505050565b6001602052805f5260405f205f91509050805f015490806001015f9054906101000a900473ffffffffffffffffffffffffffffffffffffffff1690806002015f9054906101000a900473ffffffffffffffffffffffffffffffffffffffff1690806003018054610acb90611d29565b80601f0160208091040260200160405190810160405280929190818152602001828054610af790611d29565b8015610b425780601f10610b1957610100808354040283529160200191610b42565b820191905f5260205f20905b815481529060010190602001808311610b2557829003601f168201915b505050505090806004015490806005015f9054906101000a900460ff16908060050160019054906101000a900460ff16905087565b5f60015f8381526020019081526020015f206005015f9054906101000a900460ff169050919050565b5f60015f8381526020019081526020015f20905060026005811115610bc857610bc76117d2565b5b816005015f9054906101000a900460ff166005811115610beb57610bea6117d2565b5b14610c2b576040517f08c379a0000000000000000000000000000000000000000000000000000000008152600401610c22906121a2565b60405180910390fd5b3373ffffffffffffffffffffffffffffffffffffffff16816001015f9054906101000a900473ffffffffffffffffffffffffffffffffffffffff1673ffffffffffffffffffffffffffffffffffffffff1614610cbc576040517f08c379a0000000000000000000000000000000000000000000000000000000008152600401610cb390612230565b60405180910390fd5b6003816005015f6101000a81548160ff02191690836005811115610ce357610ce26117d2565b5b02179055505f816002015f9054906101000a900473ffffffffffffffffffffffffffffffffffffffff1673ffffffffffffffffffffffffffffffffffffffff168260040154604051610d349061227b565b5f6040518083038185875af1925050503d805f8114610d6e576040519150601f19603f3d011682016040523d82523d5f602084013e610d73565b606091505b5050905080610db7576040517f08c379a0000000000000000000000000000000000000000000000000000000008152600401610dae906122d9565b60405180910390fd5b6004826005015f6101000a81548160ff02191690836005811115610dde57610ddd6117d2565b5b0217905550816002015f9054906101000a900473ffffffffffffffffffffffffffffffffffffffff1673ffffffffffffffffffffffffffffffffffffffff16837f952e5301753c5bc62cbfbdbe1b6553cd54796e01da9cfeaaf29921d6ede1a7268460040154604051610e5191906116ef565b60405180910390a3505050565b8260015f8281526020019081526020015f206001015f9054906101000a900473ffffffffffffffffffffffffffffffffffffffff1673ffffffffffffffffffffffffffffffffffffffff163373ffffffffffffffffffffffffffffffffffffffff161480610f2a575060015f8281526020019081526020015f206002015f9054906101000a900473ffffffffffffffffffffffffffffffffffffffff1673ffffffffffffffffffffffffffffffffffffffff163373ffffffffffffffffffffffffffffffffffffffff16145b610f69576040517f08c379a0000000000000000000000000000000000000000000000000000000008152600401610f6090612367565b60405180910390fd5b5f60015f8681526020019081526020015f20905060046005811115610f9157610f906117d2565b5b816005015f9054906101000a900460ff166005811115610fb457610fb36117d2565b5b14610ff4576040517f08c379a0000000000000000000000000000000000000000000000000000000008152600401610feb906123f5565b60405180910390fd5b60018310158015611006575060058311155b611045576040517f08c379a000000000000000000000000000000000000000000000000000000000815260040161103c90612483565b60405180910390fd5b5f816001015f9054906101000a900473ffffffffffffffffffffffffffffffffffffffff1673ffffffffffffffffffffffffffffffffffffffff163373ffffffffffffffffffffffffffffffffffffffff161480156110f25750816002015f9054906101000a900473ffffffffffffffffffffffffffffffffffffffff1673ffffffffffffffffffffffffffffffffffffffff168573ffffffffffffffffffffffffffffffffffffffff16145b905080611134576040517f08c379a000000000000000000000000000000000000000000000000000000000815260040161112b90612511565b60405180910390fd5b8160050160019054906101000a900460ff1615611186576040517f08c379a000000000000000000000000000000000000000000000000000000000815260040161117d9061259f565b60405180910390fd5b60018260050160016101000a81548160ff0219169083151502179055505f5f5f8773ffffffffffffffffffffffffffffffffffffffff1673ffffffffffffffffffffffffffffffffffffffff1681526020019081526020015f20905084816001015f8282546111f591906125bd565b92505081905550806002015f81548092919061121090611ff5565b91905055505f8160020154826001015461122a919061261d565b90508673ffffffffffffffffffffffffffffffffffffffff163373ffffffffffffffffffffffffffffffffffffffff167f54a5872c5194d5a64ba7dfd246b5cd960294f6a3538838fd7218251998628536888460405161128b92919061264d565b60405180910390a35050505050505050565b5f602052805f5260405f205f91509050805f015f9054906101000a900460ff16908060010154908060020154905083565b5f5f5f5f8473ffffffffffffffffffffffffffffffffffffffff1673ffffffffffffffffffffffffffffffffffffffff1681526020019081526020015f2090505f816002015403611322575f91505061133a565b80600201548160010154611336919061261d565b9150505b919050565b5f60015f8381526020019081526020015f20905060016005811115611367576113666117d2565b5b816005015f9054906101000a900460ff16600581111561138a576113896117d2565b5b146113ca576040517f08c379a00000000000000000000000000000000000000000000000000000000081526004016113c1906126e4565b60405180910390fd5b3373ffffffffffffffffffffffffffffffffffffffff16816002015f9054906101000a900473ffffffffffffffffffffffffffffffffffffffff1673ffffffffffffffffffffffffffffffffffffffff161461145b576040517f08c379a000000000000000000000000000000000000000000000000000000000815260040161145290612772565b60405180910390fd5b6002816005015f6101000a81548160ff02191690836005811115611482576114816117d2565b5b0217905550817f7a74ae824fb9b3aa1d244c7279305b8fc7aa0d8d8d5bbb1433a029848b6521bc60405160405180910390a25050565b5f604051905090565b5f5ffd5b5f5ffd5b600381106114d5575f5ffd5b50565b5f813590506114e6816114c9565b92915050565b5f60208284031215611501576115006114c1565b5b5f61150e848285016114d8565b91505092915050565b5f5ffd5b5f5ffd5b5f601f19601f8301169050919050565b7f4e487b71000000000000000000000000000000000000000000000000000000005f52604160045260245ffd5b6115658261151f565b810181811067ffffffffffffffff821117156115845761158361152f565b5b80604052505050565b5f6115966114b8565b90506115a2828261155c565b919050565b5f67ffffffffffffffff8211156115c1576115c061152f565b5b6115ca8261151f565b9050602081019050919050565b828183375f83830152505050565b5f6115f76115f2846115a7565b61158d565b9050828152602081018484840111156116135761161261151b565b5b61161e8482856115d7565b509392505050565b5f82601f83011261163a57611639611517565b5b813561164a8482602086016115e5565b91505092915050565b5f819050919050565b61166581611653565b811461166f575f5ffd5b50565b5f813590506116808161165c565b92915050565b5f5f6040838503121561169c5761169b6114c1565b5b5f83013567ffffffffffffffff8111156116b9576116b86114c5565b5b6116c585828601611626565b92505060206116d685828601611672565b9150509250929050565b6116e981611653565b82525050565b5f6020820190506117025f8301846116e0565b92915050565b5f6020828403121561171d5761171c6114c1565b5b5f61172a84828501611672565b91505092915050565b5f73ffffffffffffffffffffffffffffffffffffffff82169050919050565b5f61175c82611733565b9050919050565b61176c81611752565b82525050565b5f81519050919050565b5f82825260208201905092915050565b8281835e5f83830152505050565b5f6117a482611772565b6117ae818561177c565b93506117be81856020860161178c565b6117c78161151f565b840191505092915050565b7f4e487b71000000000000000000000000000000000000000000000000000000005f52602160045260245ffd5b600681106118105761180f6117d2565b5b50565b5f819050611820826117ff565b919050565b5f61182f82611813565b9050919050565b61183f81611825565b82525050565b5f8115159050919050565b61185981611845565b82525050565b5f60e0820190506118725f83018a6116e0565b61187f6020830189611763565b61188c6040830188611763565b818103606083015261189e818761179a565b90506118ad60808301866116e0565b6118ba60a0830185611836565b6118c760c0830184611850565b98975050505050505050565b5f6020820190506118e65f830184611836565b92915050565b5f6118f682611733565b9050919050565b611906816118ec565b8114611910575f5ffd5b50565b5f81359050611921816118fd565b92915050565b5f5f5f6060848603121561193e5761193d6114c1565b5b5f61194b86828701611672565b935050602061195c86828701611913565b925050604061196d86828701611672565b9150509250925092565b5f6020828403121561198c5761198b6114c1565b5b5f61199984828501611913565b91505092915050565b600381106119b3576119b26117d2565b5b50565b5f8190506119c3826119a2565b919050565b5f6119d2826119b6565b9050919050565b6119e2816119c8565b82525050565b5f6060820190506119fb5f8301866119d9565b611a0860208301856116e0565b611a1560408301846116e0565b949350505050565b7f47696754727573743a205573657220616c7265616479207265676973746572655f8201527f642e000000000000000000000000000000000000000000000000000000000000602082015250565b5f611a7760228361177c565b9150611a8282611a1d565b604082019050919050565b5f6020820190508181035f830152611aa481611a6b565b9050919050565b7f47696754727573743a20496e76616c696420726f6c65207370656369666965645f8201527f2e00000000000000000000000000000000000000000000000000000000000000602082015250565b5f611b0560218361177c565b9150611b1082611aab565b604082019050919050565b5f6020820190508181035f830152611b3281611af9565b9050919050565b5f602082019050611b4c5f8301846119d9565b92915050565b7f47696754727573743a2043616c6c6572206d75737420686176652074686520725f8201527f6571756972656420726f6c652e00000000000000000000000000000000000000602082015250565b5f611bac602d8361177c565b9150611bb782611b52565b604082019050919050565b5f6020820190508181035f830152611bd981611ba0565b9050919050565b7f47696754727573743a20466565206d75737420626520677265617465722074685f8201527f616e207a65726f2e000000000000000000000000000000000000000000000000602082015250565b5f611c3a60288361177c565b9150611c4582611be0565b604082019050919050565b5f6020820190508181035f830152611c6781611c2e565b9050919050565b7f47696754727573743a2053656e742076616c7565206d757374206d61746368205f8201527f746865207370656369666965642066656520666f7220657363726f772e000000602082015250565b5f611cc8603d8361177c565b9150611cd382611c6e565b604082019050919050565b5f6020820190508181035f830152611cf581611cbc565b9050919050565b7f4e487b71000000000000000000000000000000000000000000000000000000005f52602260045260245ffd5b5f6002820490506001821680611d4057607f821691505b602082108103611d5357611d52611cfc565b5b50919050565b5f819050815f5260205f209050919050565b5f6020601f8301049050919050565b5f82821b905092915050565b5f60088302611db57fffffffffffffffffffffffffffffffffffffffffffffffffffffffffffffffff82611d7a565b611dbf8683611d7a565b95508019841693508086168417925050509392505050565b5f819050919050565b5f611dfa611df5611df084611653565b611dd7565b611653565b9050919050565b5f819050919050565b611e1383611de0565b611e27611e1f82611e01565b848454611d86565b825550505050565b5f5f905090565b611e3e611e2f565b611e49818484611e0a565b505050565b5b81811015611e6c57611e615f82611e36565b600181019050611e4f565b5050565b601f821115611eb157611e8281611d59565b611e8b84611d6b565b81016020851015611e9a578190505b611eae611ea685611d6b565b830182611e4e565b50505b505050565b5f82821c905092915050565b5f611ed15f1984600802611eb6565b1980831691505092915050565b5f611ee98383611ec2565b9150826002028217905092915050565b611f0282611772565b67ffffffffffffffff811115611f1b57611f1a61152f565b5b611f258254611d29565b611f30828285611e70565b5f60209050601f831160018114611f61575f8415611f4f578287015190505b611f598582611ede565b865550611fc0565b601f198416611f6f86611d59565b5f5b82811015611f9657848901518255600182019150602085019450602081019050611f71565b86831015611fb35784890151611faf601f891682611ec2565b8355505b6001600288020188555050505b505050505050565b7f4e487b71000000000000000000000000000000000000000000000000000000005f52601160045260245ffd5b5f611fff82611653565b91507fffffffffffffffffffffffffffffffffffffffffffffffffffffffffffffffff820361203157612030611fc8565b5b600182019050919050565b7f47696754727573743a20476967206973206e6f74206f70656e2e0000000000005f82015250565b5f612070601a8361177c565b915061207b8261203c565b602082019050919050565b5f6020820190508181035f83015261209d81612064565b9050919050565b7f47696754727573743a2043616e6e6f742061636365707420796f7572206f776e5f8201527f206769672e000000000000000000000000000000000000000000000000000000602082015250565b5f6120fe60258361177c565b9150612109826120a4565b604082019050919050565b5f6020820190508181035f83015261212b816120f2565b9050919050565b7f47696754727573743a20476967206d75737420626520636f6d706c65746564205f8201527f627920776f726b65722066697273742e00000000000000000000000000000000602082015250565b5f61218c60308361177c565b915061219782612132565b604082019050919050565b5f6020820190508181035f8301526121b981612180565b9050919050565b7f47696754727573743a204f6e6c792074686520636f6e74726163746f722063615f8201527f6e20636f6e6669726d20746865206769672e0000000000000000000000000000602082015250565b5f61221a60328361177c565b9150612225826121c0565b604082019050919050565b5f6020820190508181035f8301526122478161220e565b9050919050565b5f81905092915050565b50565b5f6122665f8361224e565b915061227182612258565b5f82019050919050565b5f6122858261225b565b9150819050919050565b7f47696754727573743a20455448207472616e73666572206661696c65642e00005f82015250565b5f6122c3601e8361177c565b91506122ce8261228f565b602082019050919050565b5f6020820190508181035f8301526122f0816122b7565b9050919050565b7f47696754727573743a2043616c6c6572206973206e6f742061207061727469635f8201527f6970616e742e0000000000000000000000000000000000000000000000000000602082015250565b5f61235160268361177c565b915061235c826122f7565b604082019050919050565b5f6020820190508181035f83015261237e81612345565b9050919050565b7f47696754727573743a20526174696e67206973206f6e6c7920616c6c6f7765645f8201527f206166746572207061796d656e742e0000000000000000000000000000000000602082015250565b5f6123df602f8361177c565b91506123ea82612385565b604082019050919050565b5f6020820190508181035f83015261240c816123d3565b9050919050565b7f47696754727573743a20526174696e67206d757374206265206265747765656e5f8201527f203120616e6420352e0000000000000000000000000000000000000000000000602082015250565b5f61246d60298361177c565b915061247882612413565b604082019050919050565b5f6020820190508181035f83015261249a81612461565b9050919050565b7f47696754727573743a204f6e6c792074686520436f6e74726163746f722063615f8201527f6e20726174652074686520576f726b65722e0000000000000000000000000000602082015250565b5f6124fb60328361177c565b9150612506826124a1565b604082019050919050565b5f6020820190508181035f830152612528816124ef565b9050919050565b7f47696754727573743a20436f6e74726163746f7220616c7265616479207261745f8201527f65642074686520776f726b657220666f722074686973206769672e0000000000602082015250565b5f612589603b8361177c565b91506125948261252f565b604082019050919050565b5f6020820190508181035f8301526125b68161257d565b9050919050565b5f6125c782611653565b91506125d283611653565b92508282019050808211156125ea576125e9611fc8565b5b92915050565b7f4e487b71000000000000000000000000000000000000000000000000000000005f52601260045260245ffd5b5f61262782611653565b915061263283611653565b925082612642576126416125f0565b5b828204905092915050565b5f6040820190506126605f8301856116e0565b61266d60208301846116e0565b9392505050565b7f47696754727573743a20476967206d75737420626520696e20416363657074655f8201527f64207374617475732e0000000000000000000000000000000000000000000000602082015250565b5f6126ce60298361177c565b91506126d982612674565b604082019050919050565b5f6020820190508181035f8301526126fb816126c2565b9050919050565b7f47696754727573743a204f6e6c79207468652061737369676e656420776f726b5f8201527f65722063616e20636f6d706c65746520746865206769672e0000000000000000602082015250565b5f61275c60388361177c565b915061276782612702565b604082019050919050565b5f6020820190508181035f83015261278981612750565b905091905056fea26469706673582212201c18f1d8e1bcdd74dd76ad16d2380c31b9852bfb3b352c3a849e97160f88c0ba64736f6c634300081e0033",
			"opcodes": "PUSH1 0x80 PUSH1 0x40 MSTORE PUSH1 0x1 PUSH1 0x2 SSTORE CALLVALUE DUP1 ISZERO PUSH1 0x13 JUMPI PUSH0 PUSH0 REVERT JUMPDEST POP PUSH2 0x27C6 DUP1 PUSH2 0x21 PUSH0 CODECOPY PUSH0 RETURN INVALID PUSH1 0x80 PUSH1 0x40 MSTORE PUSH1 0x4 CALLDATASIZE LT PUSH2 0x9B JUMPI PUSH0 CALLDATALOAD PUSH1 0xE0 SHR DUP1 PUSH4 0x86FFEB27 GT PUSH2 0x63 JUMPI DUP1 PUSH4 0x86FFEB27 EQ PUSH2 0x177 JUMPI DUP1 PUSH4 0x8864DE05 EQ PUSH2 0x1B3 JUMPI DUP1 PUSH4 0xA10543FC EQ PUSH2 0x1DB JUMPI DUP1 PUSH4 0xA87430BA EQ PUSH2 0x203 JUMPI DUP1 PUSH4 0xBACCBFDB EQ PUSH2 0x241 JUMPI DUP1 PUSH4 0xD1846924 EQ PUSH2 0x27D JUMPI PUSH2 0x9B JUMP JUMPDEST DUP1 PUSH4 0x2B8C8CD EQ PUSH2 0x9F JUMPI DUP1 PUSH4 0x22D638D5 EQ PUSH2 0xC7 JUMPI DUP1 PUSH4 0x55AB6BA3 EQ PUSH2 0xE3 JUMPI DUP1 PUSH4 0x578114DC EQ PUSH2 0x10D JUMPI DUP1 PUSH4 0x5E3FBDC8 EQ PUSH2 0x135 JUMPI JUMPDEST PUSH0 PUSH0 REVERT JUMPDEST CALLVALUE DUP1 ISZERO PUSH2 0xAA JUMPI PUSH0 PUSH0 REVERT JUMPDEST POP PUSH2 0xC5 PUSH1 0x4 DUP1 CALLDATASIZE SUB DUP2 ADD SWAP1 PUSH2 0xC0 SWAP2 SWAP1 PUSH2 0x14EC JUMP JUMPDEST PUSH2 0x2A5 JUMP JUMPDEST STOP JUMPDEST PUSH2 0xE1 PUSH1 0x4 DUP1 CALLDATASIZE SUB DUP2 ADD SWAP1 PUSH2 0xDC SWAP2 SWAP1 PUSH2 0x1686 JUMP JUMPDEST PUSH2 0x4A0 JUMP JUMPDEST STOP JUMPDEST CALLVALUE DUP1 ISZERO PUSH2 0xEE JUMPI PUSH0 PUSH0 REVERT JUMPDEST POP PUSH2 0xF7 PUSH2 0x7D2 JUMP JUMPDEST PUSH1 0x40 MLOAD PUSH2 0x104 SWAP2 SWAP1 PUSH2 0x16EF JUMP JUMPDEST PUSH1 0x40 MLOAD DUP1 SWAP2 SUB SWAP1 RETURN JUMPDEST CALLVALUE DUP1 ISZERO PUSH2 0x118 JUMPI PUSH0 PUSH0 REVERT JUMPDEST POP PUSH2 0x133 PUSH1 0x4 DUP1 CALLDATASIZE SUB DUP2 ADD SWAP1 PUSH2 0x12E SWAP2 SWAP1 PUSH2 0x1708 JUMP JUMPDEST PUSH2 0x7D8 JUMP JUMPDEST STOP JUMPDEST CALLVALUE DUP1 ISZERO PUSH2 0x140 JUMPI PUSH0 PUSH0 REVERT JUMPDEST POP PUSH2 0x15B PUSH1 0x4 DUP1 CALLDATASIZE SUB DUP2 ADD SWAP1 PUSH2 0x156 SWAP2 SWAP1 PUSH2 0x1708 JUMP JUMPDEST PUSH2 0xA5C JUMP JUMPDEST PUSH1 0x40 MLOAD PUSH2 0x16E SWAP8 SWAP7 SWAP6 SWAP5 SWAP4 SWAP3 SWAP2 SWAP1 PUSH2 0x185F JUMP JUMPDEST PUSH1 0x40 MLOAD DUP1 SWAP2 SUB SWAP1 RETURN JUMPDEST CALLVALUE DUP1 ISZERO PUSH2 0x182 JUMPI PUSH0 PUSH0 REVERT JUMPDEST POP PUSH2 0x19D PUSH1 0x4 DUP1 CALLDATASIZE SUB DUP2 ADD SWAP1 PUSH2 0x198 SWAP2 SWAP1 PUSH2 0x1708 JUMP JUMPDEST PUSH2 0xB77 JUMP JUMPDEST PUSH1 0x40 MLOAD PUSH2 0x1AA SWAP2 SWAP1 PUSH2 0x18D3 JUMP JUMPDEST PUSH1 0x40 MLOAD DUP1 SWAP2 SUB SWAP1 RETURN JUMPDEST CALLVALUE DUP1 ISZERO PUSH2 0x1BE JUMPI PUSH0 PUSH0 REVERT JUMPDEST POP PUSH2 0x1D9 PUSH1 0x4 DUP1 CALLDATASIZE SUB DUP2 ADD SWAP1 PUSH2 0x1D4 SWAP2 SWAP1 PUSH2 0x1708 JUMP JUMPDEST PUSH2 0xBA0 JUMP JUMPDEST STOP JUMPDEST CALLVALUE DUP1 ISZERO PUSH2 0x1E6 JUMPI PUSH0 PUSH0 REVERT JUMPDEST POP PUSH2 0x201 PUSH1 0x4 DUP1 CALLDATASIZE SUB DUP2 ADD SWAP1 PUSH2 0x1FC SWAP2 SWAP1 PUSH2 0x1927 JUMP JUMPDEST PUSH2 0xE5E JUMP JUMPDEST STOP JUMPDEST CALLVALUE DUP1 ISZERO PUSH2 0x20E JUMPI PUSH0 PUSH0 REVERT JUMPDEST POP PUSH2 0x229 PUSH1 0x4 DUP1 CALLDATASIZE SUB DUP2 ADD SWAP1 PUSH2 0x224 SWAP2 SWAP1 PUSH2 0x1977 JUMP JUMPDEST PUSH2 0x129D JUMP JUMPDEST PUSH1 0x40 MLOAD PUSH2 0x238 SWAP4 SWAP3 SWAP2 SWAP1 PUSH2 0x19E8 JUMP JUMPDEST PUSH1 0x40 MLOAD DUP1 SWAP2 SUB SWAP1 RETURN JUMPDEST CALLVALUE DUP1 ISZERO PUSH2 0x24C JUMPI PUSH0 PUSH0 REVERT JUMPDEST POP PUSH2 0x267 PUSH1 0x4 DUP1 CALLDATASIZE SUB DUP2 ADD SWAP1 PUSH2 0x262 SWAP2 SWAP1 PUSH2 0x1977 JUMP JUMPDEST PUSH2 0x12CE JUMP JUMPDEST PUSH1 0x40 MLOAD PUSH2 0x274 SWAP2 SWAP1 PUSH2 0x16EF JUMP JUMPDEST PUSH1 0x40 MLOAD DUP1 SWAP2 SUB SWAP1 RETURN JUMPDEST CALLVALUE DUP1 ISZERO PUSH2 0x288 JUMPI PUSH0 PUSH0 REVERT JUMPDEST POP PUSH2 0x2A3 PUSH1 0x4 DUP1 CALLDATASIZE SUB DUP2 ADD SWAP1 PUSH2 0x29E SWAP2 SWAP1 PUSH2 0x1708 JUMP JUMPDEST PUSH2 0x133F JUMP JUMPDEST STOP JUMPDEST PUSH0 PUSH1 0x2 DUP2 GT ISZERO PUSH2 0x2B8 JUMPI PUSH2 0x2B7 PUSH2 0x17D2 JUMP JUMPDEST JUMPDEST PUSH0 PUSH0 CALLER PUSH20 0xFFFFFFFFFFFFFFFFFFFFFFFFFFFFFFFFFFFFFFFF AND PUSH20 0xFFFFFFFFFFFFFFFFFFFFFFFFFFFFFFFFFFFFFFFF AND DUP2 MSTORE PUSH1 0x20 ADD SWAP1 DUP2 MSTORE PUSH1 0x20 ADD PUSH0 KECCAK256 PUSH0 ADD PUSH0 SWAP1 SLOAD SWAP1 PUSH2 0x100 EXP SWAP1 DIV PUSH1 0xFF AND PUSH1 0x2 DUP2 GT ISZERO PUSH2 0x315 JUMPI PUSH2 0x314 PUSH2 0x17D2 JUMP JUMPDEST JUMPDEST EQ PUSH2 0x355 JUMPI PUSH1 0x40 MLOAD PUSH32 0x8C379A000000000000000000000000000000000000000000000000000000000 DUP2 MSTORE PUSH1 0x4 ADD PUSH2 0x34C SWAP1 PUSH2 0x1A8D JUMP JUMPDEST PUSH1 0x40 MLOAD DUP1 SWAP2 SUB SWAP1 REVERT JUMPDEST PUSH1 0x1 PUSH1 0x2 DUP2 GT ISZERO PUSH2 0x369 JUMPI PUSH2 0x368 PUSH2 0x17D2 JUMP JUMPDEST JUMPDEST DUP2 PUSH1 0x2 DUP2 GT ISZERO PUSH2 0x37C JUMPI PUSH2 0x37B PUSH2 0x17D2 JUMP JUMPDEST JUMPDEST EQ DUP1 PUSH2 0x3AB JUMPI POP PUSH1 0x2 DUP1 DUP2 GT ISZERO PUSH2 0x396 JUMPI PUSH2 0x395 PUSH2 0x17D2 JUMP JUMPDEST JUMPDEST DUP2 PUSH1 0x2 DUP2 GT ISZERO PUSH2 0x3A9 JUMPI PUSH2 0x3A8 PUSH2 0x17D2 JUMP JUMPDEST JUMPDEST EQ JUMPDEST PUSH2 0x3EA JUMPI PUSH1 0x40 MLOAD PUSH32 0x8C379A000000000000000000000000000000000000000000000000000000000 DUP2 MSTORE PUSH1 0x4 ADD PUSH2 0x3E1 SWAP1 PUSH2 0x1B1B JUMP JUMPDEST PUSH1 0x40 MLOAD DUP1 SWAP2 SUB SWAP1 REVERT JUMPDEST DUP1 PUSH0 PUSH0 CALLER PUSH20 0xFFFFFFFFFFFFFFFFFFFFFFFFFFFFFFFFFFFFFFFF AND PUSH20 0xFFFFFFFFFFFFFFFFFFFFFFFFFFFFFFFFFFFFFFFF AND DUP2 MSTORE PUSH1 0x20 ADD SWAP1 DUP2 MSTORE PUSH1 0x20 ADD PUSH0 KECCAK256 PUSH0 ADD PUSH0 PUSH2 0x100 EXP DUP2 SLOAD DUP2 PUSH1 0xFF MUL NOT AND SWAP1 DUP4 PUSH1 0x2 DUP2 GT ISZERO PUSH2 0x44A JUMPI PUSH2 0x449 PUSH2 0x17D2 JUMP JUMPDEST JUMPDEST MUL OR SWAP1 SSTORE POP CALLER PUSH20 0xFFFFFFFFFFFFFFFFFFFFFFFFFFFFFFFFFFFFFFFF AND PUSH32 0x8E18574F8A7333E6A87112742A55853A643E2F0550F4E1A3A2C3F1BB2994441D DUP3 PUSH1 0x40 MLOAD PUSH2 0x495 SWAP2 SWAP1 PUSH2 0x1B39 JUMP JUMPDEST PUSH1 0x40 MLOAD DUP1 SWAP2 SUB SWAP1 LOG2 POP JUMP JUMPDEST PUSH1 0x1 DUP1 PUSH1 0x2 DUP2 GT ISZERO PUSH2 0x4B5 JUMPI PUSH2 0x4B4 PUSH2 0x17D2 JUMP JUMPDEST JUMPDEST PUSH0 PUSH0 CALLER PUSH20 0xFFFFFFFFFFFFFFFFFFFFFFFFFFFFFFFFFFFFFFFF AND PUSH20 0xFFFFFFFFFFFFFFFFFFFFFFFFFFFFFFFFFFFFFFFF AND DUP2 MSTORE PUSH1 0x20 ADD SWAP1 DUP2 MSTORE PUSH1 0x20 ADD PUSH0 KECCAK256 PUSH0 ADD PUSH0 SWAP1 SLOAD SWAP1 PUSH2 0x100 EXP SWAP1 DIV PUSH1 0xFF AND PUSH1 0x2 DUP2 GT ISZERO PUSH2 0x512 JUMPI PUSH2 0x511 PUSH2 0x17D2 JUMP JUMPDEST JUMPDEST EQ PUSH2 0x552 JUMPI PUSH1 0x40 MLOAD PUSH32 0x8C379A000000000000000000000000000000000000000000000000000000000 DUP2 MSTORE PUSH1 0x4 ADD PUSH2 0x549 SWAP1 PUSH2 0x1BC2 JUMP JUMPDEST PUSH1 0x40 MLOAD DUP1 SWAP2 SUB SWAP1 REVERT JUMPDEST PUSH0 DUP3 GT PUSH2 0x594 JUMPI PUSH1 0x40 MLOAD PUSH32 0x8C379A000000000000000000000000000000000000000000000000000000000 DUP2 MSTORE PUSH1 0x4 ADD PUSH2 0x58B SWAP1 PUSH2 0x1C50 JUMP JUMPDEST PUSH1 0x40 MLOAD DUP1 SWAP2 SUB SWAP1 REVERT JUMPDEST DUP2 CALLVALUE EQ PUSH2 0x5D6 JUMPI PUSH1 0x40 MLOAD PUSH32 0x8C379A000000000000000000000000000000000000000000000000000000000 DUP2 MSTORE PUSH1 0x4 ADD PUSH2 0x5CD SWAP1 PUSH2 0x1CDE JUMP JUMPDEST PUSH1 0x40 MLOAD DUP1 SWAP2 SUB SWAP1 REVERT JUMPDEST PUSH0 PUSH1 0x2 SLOAD SWAP1 POP PUSH1 0x40 MLOAD DUP1 PUSH1 0xE0 ADD PUSH1 0x40 MSTORE DUP1 DUP3 DUP2 MSTORE PUSH1 0x20 ADD CALLER PUSH20 0xFFFFFFFFFFFFFFFFFFFFFFFFFFFFFFFFFFFFFFFF AND DUP2 MSTORE PUSH1 0x20 ADD PUSH0 PUSH20 0xFFFFFFFFFFFFFFFFFFFFFFFFFFFFFFFFFFFFFFFF AND DUP2 MSTORE PUSH1 0x20 ADD DUP6 DUP2 MSTORE PUSH1 0x20 ADD DUP5 DUP2 MSTORE PUSH1 0x20 ADD PUSH0 PUSH1 0x5 DUP2 GT ISZERO PUSH2 0x644 JUMPI PUSH2 0x643 PUSH2 0x17D2 JUMP JUMPDEST JUMPDEST DUP2 MSTORE PUSH1 0x20 ADD PUSH0 ISZERO ISZERO DUP2 MSTORE POP PUSH1 0x1 PUSH0 DUP4 DUP2 MSTORE PUSH1 0x20 ADD SWAP1 DUP2 MSTORE PUSH1 0x20 ADD PUSH0 KECCAK256 PUSH0 DUP3 ADD MLOAD DUP2 PUSH0 ADD SSTORE PUSH1 0x20 DUP3 ADD MLOAD DUP2 PUSH1 0x1 ADD PUSH0 PUSH2 0x100 EXP DUP2 SLOAD DUP2 PUSH20 0xFFFFFFFFFFFFFFFFFFFFFFFFFFFFFFFFFFFFFFFF MUL NOT AND SWAP1 DUP4 PUSH20 0xFFFFFFFFFFFFFFFFFFFFFFFFFFFFFFFFFFFFFFFF AND MUL OR SWAP1 SSTORE POP PUSH1 0x40 DUP3 ADD MLOAD DUP2 PUSH1 0x2 ADD PUSH0 PUSH2 0x100 EXP DUP2 SLOAD DUP2 PUSH20 0xFFFFFFFFFFFFFFFFFFFFFFFFFFFFFFFFFFFFFFFF MUL NOT AND SWAP1 DUP4 PUSH20 0xFFFFFFFFFFFFFFFFFFFFFFFFFFFFFFFFFFFFFFFF AND MUL OR SWAP1 SSTORE POP PUSH1 0x60 DUP3 ADD MLOAD DUP2 PUSH1 0x3 ADD SWAP1 DUP2 PUSH2 0x709 SWAP2 SWAP1 PUSH2 0x1EF9 JUMP JUMPDEST POP PUSH1 0x80 DUP3 ADD MLOAD DUP2 PUSH1 0x4 ADD SSTORE PUSH1 0xA0 DUP3 ADD MLOAD DUP2 PUSH1 0x5 ADD PUSH0 PUSH2 0x100 EXP DUP2 SLOAD DUP2 PUSH1 0xFF MUL NOT AND SWAP1 DUP4 PUSH1 0x5 DUP2 GT ISZERO PUSH2 0x73E JUMPI PUSH2 0x73D PUSH2 0x17D2 JUMP JUMPDEST JUMPDEST MUL OR SWAP1 SSTORE POP PUSH1 0xC0 DUP3 ADD MLOAD DUP2 PUSH1 0x5 ADD PUSH1 0x1 PUSH2 0x100 EXP DUP2 SLOAD DUP2 PUSH1 0xFF MUL NOT AND SWAP1 DUP4 ISZERO ISZERO MUL OR SWAP1 SSTORE POP SWAP1 POP POP PUSH1 0x2 PUSH0 DUP2 SLOAD DUP1 SWAP3 SWAP2 SWAP1 PUSH2 0x778 SWAP1 PUSH2 0x1FF5 JUMP JUMPDEST SWAP2 SWAP1 POP SSTORE POP CALLER PUSH20 0xFFFFFFFFFFFFFFFFFFFFFFFFFFFFFFFFFFFFFFFF AND DUP2 PUSH32 0x4683F31D1EECF4C6772415975C4FF9D9522929C8C8711F5386B45F88B4C6DAAF DUP6 PUSH1 0x40 MLOAD PUSH2 0x7C4 SWAP2 SWAP1 PUSH2 0x16EF JUMP JUMPDEST PUSH1 0x40 MLOAD DUP1 SWAP2 SUB SWAP1 LOG3 POP POP POP POP JUMP JUMPDEST PUSH1 0x2 SLOAD DUP2 JUMP JUMPDEST PUSH1 0x2 DUP1 PUSH1 0x2 DUP2 GT ISZERO PUSH2 0x7ED JUMPI PUSH2 0x7EC PUSH2 0x17D2 JUMP JUMPDEST JUMPDEST PUSH0 PUSH0 CALLER PUSH20 0xFFFFFFFFFFFFFFFFFFFFFFFFFFFFFFFFFFFFFFFF AND PUSH20 0xFFFFFFFFFFFFFFFFFFFFFFFFFFFFFFFFFFFFFFFF AND DUP2 MSTORE PUSH1 0x20 ADD SWAP1 DUP2 MSTORE PUSH1 0x20 ADD PUSH0 KECCAK256 PUSH0 ADD PUSH0 SWAP1 SLOAD SWAP1 PUSH2 0x100 EXP SWAP1 DIV PUSH1 0xFF AND PUSH1 0x2 DUP2 GT ISZERO PUSH2 0x84A JUMPI PUSH2 0x849 PUSH2 0x17D2 JUMP JUMPDEST JUMPDEST EQ PUSH2 0x88A JUMPI PUSH1 0x40 MLOAD PUSH32 0x8C379A000000000000000000000000000000000000000000000000000000000 DUP2 MSTORE PUSH1 0x4 ADD PUSH2 0x881 SWAP1 PUSH2 0x1BC2 JUMP JUMPDEST PUSH1 0x40 MLOAD DUP1 SWAP2 SUB SWAP1 REVERT JUMPDEST PUSH0 PUSH1 0x1 PUSH0 DUP5 DUP2 MSTORE PUSH1 0x20 ADD SWAP1 DUP2 MSTORE PUSH1 0x20 ADD PUSH0 KECCAK256 SWAP1 POP PUSH0 PUSH1 0x5 DUP2 GT ISZERO PUSH2 0x8B1 JUMPI PUSH2 0x8B0 PUSH2 0x17D2 JUMP JUMPDEST JUMPDEST DUP2 PUSH1 0x5 ADD PUSH0 SWAP1 SLOAD SWAP1 PUSH2 0x100 EXP SWAP1 DIV PUSH1 0xFF AND PUSH1 0x5 DUP2 GT ISZERO PUSH2 0x8D4 JUMPI PUSH2 0x8D3 PUSH2 0x17D2 JUMP JUMPDEST JUMPDEST EQ PUSH2 0x914 JUMPI PUSH1 0x40 MLOAD PUSH32 0x8C379A000000000000000000000000000000000000000000000000000000000 DUP2 MSTORE PUSH1 0x4 ADD PUSH2 0x90B SWAP1 PUSH2 0x2086 JUMP JUMPDEST PUSH1 0x40 MLOAD DUP1 SWAP2 SUB SWAP1 REVERT JUMPDEST CALLER PUSH20 0xFFFFFFFFFFFFFFFFFFFFFFFFFFFFFFFFFFFFFFFF AND DUP2 PUSH1 0x1 ADD PUSH0 SWAP1 SLOAD SWAP1 PUSH2 0x100 EXP SWAP1 DIV PUSH20 0xFFFFFFFFFFFFFFFFFFFFFFFFFFFFFFFFFFFFFFFF AND PUSH20 0xFFFFFFFFFFFFFFFFFFFFFFFFFFFFFFFFFFFFFFFF AND SUB PUSH2 0x9A5 JUMPI PUSH1 0x40 MLOAD PUSH32 0x8C379A000000000000000000000000000000000000000000000000000000000 DUP2 MSTORE PUSH1 0x4 ADD PUSH2 0x99C SWAP1 PUSH2 0x2114 JUMP JUMPDEST PUSH1 0x40 MLOAD DUP1 SWAP2 SUB SWAP1 REVERT JUMPDEST CALLER DUP2 PUSH1 0x2 ADD PUSH0 PUSH2 0x100 EXP DUP2 SLOAD DUP2 PUSH20 0xFFFFFFFFFFFFFFFFFFFFFFFFFFFFFFFFFFFFFFFF MUL NOT AND SWAP1 DUP4 PUSH20 0xFFFFFFFFFFFFFFFFFFFFFFFFFFFFFFFFFFFFFFFF AND MUL OR SWAP1 SSTORE POP PUSH1 0x1 DUP2 PUSH1 0x5 ADD PUSH0 PUSH2 0x100 EXP DUP2 SLOAD DUP2 PUSH1 0xFF MUL NOT AND SWAP1 DUP4 PUSH1 0x5 DUP2 GT ISZERO PUSH2 0xA0E JUMPI PUSH2 0xA0D PUSH2 0x17D2 JUMP JUMPDEST JUMPDEST MUL OR SWAP1 SSTORE POP CALLER PUSH20 0xFFFFFFFFFFFFFFFFFFFFFFFFFFFFFFFFFFFFFFFF AND DUP4 PUSH32 0x9B76C4F0DB4065083154BF90F0CF7494E5FF4CF89EC212FBABAC151B7E7476F PUSH1 0x40 MLOAD PUSH1 0x40 MLOAD DUP1 SWAP2 SUB SWAP1 LOG3 POP POP POP JUMP JUMPDEST PUSH1 0x1 PUSH1 0x20 MSTORE DUP1 PUSH0 MSTORE PUSH1 0x40 PUSH0 KECCAK256 PUSH0 SWAP2 POP SWAP1 POP DUP1 PUSH0 ADD SLOAD SWAP1 DUP1 PUSH1 0x1 ADD PUSH0 SWAP1 SLOAD SWAP1 PUSH2 0x100 EXP SWAP1 DIV PUSH20 0xFFFFFFFFFFFFFFFFFFFFFFFFFFFFFFFFFFFFFFFF AND SWAP1 DUP1 PUSH1 0x2 ADD PUSH0 SWAP1 SLOAD SWAP1 PUSH2 0x100 EXP SWAP1 DIV PUSH20 0xFFFFFFFFFFFFFFFFFFFFFFFFFFFFFFFFFFFFFFFF AND SWAP1 DUP1 PUSH1 0x3 ADD DUP1 SLOAD PUSH2 0xACB SWAP1 PUSH2 0x1D29 JUMP JUMPDEST DUP1 PUSH1 0x1F ADD PUSH1 0x20 DUP1 SWAP2 DIV MUL PUSH1 0x20 ADD PUSH1 0x40 MLOAD SWAP1 DUP2 ADD PUSH1 0x40 MSTORE DUP1 SWAP3 SWAP2 SWAP1 DUP2 DUP2 MSTORE PUSH1 0x20 ADD DUP3 DUP1 SLOAD PUSH2 0xAF7 SWAP1 PUSH2 0x1D29 JUMP JUMPDEST DUP1 ISZERO PUSH2 0xB42 JUMPI DUP1 PUSH1 0x1F LT PUSH2 0xB19 JUMPI PUSH2 0x100 DUP1 DUP4 SLOAD DIV MUL DUP4 MSTORE SWAP2 PUSH1 0x20 ADD SWAP2 PUSH2 0xB42 JUMP JUMPDEST DUP3 ADD SWAP2 SWAP1 PUSH0 MSTORE PUSH1 0x20 PUSH0 KECCAK256 SWAP1 JUMPDEST DUP2 SLOAD DUP2 MSTORE SWAP1 PUSH1 0x1 ADD SWAP1 PUSH1 0x20 ADD DUP1 DUP4 GT PUSH2 0xB25 JUMPI DUP3 SWAP1 SUB PUSH1 0x1F AND DUP3 ADD SWAP2 JUMPDEST POP POP POP POP POP SWAP1 DUP1 PUSH1 0x4 ADD SLOAD SWAP1 DUP1 PUSH1 0x5 ADD PUSH0 SWAP1 SLOAD SWAP1 PUSH2 0x100 EXP SWAP1 DIV PUSH1 0xFF AND SWAP1 DUP1 PUSH1 0x5 ADD PUSH1 0x1 SWAP1 SLOAD SWAP1 PUSH2 0x100 EXP SWAP1 DIV PUSH1 0xFF AND SWAP1 POP DUP8 JUMP JUMPDEST PUSH0 PUSH1 0x1 PUSH0 DUP4 DUP2 MSTORE PUSH1 0x20 ADD SWAP1 DUP2 MSTORE PUSH1 0x20 ADD PUSH0 KECCAK256 PUSH1 0x5 ADD PUSH0 SWAP1 SLOAD SWAP1 PUSH2 0x100 EXP SWAP1 DIV PUSH1 0xFF AND SWAP1 POP SWAP2 SWAP1 POP JUMP JUMPDEST PUSH0 PUSH1 0x1 PUSH0 DUP4 DUP2 MSTORE PUSH1 0x20 ADD SWAP1 DUP2 MSTORE PUSH1 0x20 ADD PUSH0 KECCAK256 SWAP1 POP PUSH1 0x2 PUSH1 0x5 DUP2 GT ISZERO PUSH2 0xBC8 JUMPI PUSH2 0xBC7 PUSH2 0x17D2 JUMP JUMPDEST JUMPDEST DUP2 PUSH1 0x5 ADD PUSH0 SWAP1 SLOAD SWAP1 PUSH2 0x100 EXP SWAP1 DIV PUSH1 0xFF AND PUSH1 0x5 DUP2 GT ISZERO PUSH2 0xBEB JUMPI PUSH2 0xBEA PUSH2 0x17D2 JUMP JUMPDEST JUMPDEST EQ PUSH2 0xC2B JUMPI PUSH1 0x40 MLOAD PUSH32 0x8C379A000000000000000000000000000000000000000000000000000000000 DUP2 MSTORE PUSH1 0x4 ADD PUSH2 0xC22 SWAP1 PUSH2 0x21A2 JUMP JUMPDEST PUSH1 0x40 MLOAD DUP1 SWAP2 SUB SWAP1 REVERT JUMPDEST CALLER PUSH20 0xFFFFFFFFFFFFFFFFFFFFFFFFFFFFFFFFFFFFFFFF AND DUP2 PUSH1 0x1 ADD PUSH0 SWAP1 SLOAD SWAP1 PUSH2 0x100 EXP SWAP1 DIV PUSH20 0xFFFFFFFFFFFFFFFFFFFFFFFFFFFFFFFFFFFFFFFF AND PUSH20 0xFFFFFFFFFFFFFFFFFFFFFFFFFFFFFFFFFFFFFFFF AND EQ PUSH2 0xCBC JUMPI PUSH1 0x40 MLOAD PUSH32 0x8C379A000000000000000000000000000000000000000000000000000000000 DUP2 MSTORE PUSH1 0x4 ADD PUSH2 0xCB3 SWAP1 PUSH2 0x2230 JUMP JUMPDEST PUSH1 0x40 MLOAD DUP1 SWAP2 SUB SWAP1 REVERT JUMPDEST PUSH1 0x3 DUP2 PUSH1 0x5 ADD PUSH0 PUSH2 0x100 EXP DUP2 SLOAD DUP2 PUSH1 0xFF MUL NOT AND SWAP1 DUP4 PUSH1 0x5 DUP2 GT ISZERO PUSH2 0xCE3 JUMPI PUSH2 0xCE2 PUSH2 0x17D2 JUMP JUMPDEST JUMPDEST MUL OR SWAP1 SSTORE POP PUSH0 DUP2 PUSH1 0x2 ADD PUSH0 SWAP1 SLOAD SWAP1 PUSH2 0x100 EXP SWAP1 DIV PUSH20 0xFFFFFFFFFFFFFFFFFFFFFFFFFFFFFFFFFFFFFFFF AND PUSH20 0xFFFFFFFFFFFFFFFFFFFFFFFFFFFFFFFFFFFFFFFF AND DUP3 PUSH1 0x4 ADD SLOAD PUSH1 0x40 MLOAD PUSH2 0xD34 SWAP1 PUSH2 0x227B JUMP JUMPDEST PUSH0 PUSH1 0x40 MLOAD DUP1 DUP4 SUB DUP2 DUP6 DUP8 GAS CALL SWAP3 POP POP POP RETURNDATASIZE DUP1 PUSH0 DUP2 EQ PUSH2 0xD6E JUMPI PUSH1 0x40 MLOAD SWAP2 POP PUSH1 0x1F NOT PUSH1 0x3F RETURNDATASIZE ADD AND DUP3 ADD PUSH1 0x40 MSTORE RETURNDATASIZE DUP3 MSTORE RETURNDATASIZE PUSH0 PUSH1 0x20 DUP5 ADD RETURNDATACOPY PUSH2 0xD73 JUMP JUMPDEST PUSH1 0x60 SWAP2 POP JUMPDEST POP POP SWAP1 POP DUP1 PUSH2 0xDB7 JUMPI PUSH1 0x40 MLOAD PUSH32 0x8C379A000000000000000000000000000000000000000000000000000000000 DUP2 MSTORE PUSH1 0x4 ADD PUSH2 0xDAE SWAP1 PUSH2 0x22D9 JUMP JUMPDEST PUSH1 0x40 MLOAD DUP1 SWAP2 SUB SWAP1 REVERT JUMPDEST PUSH1 0x4 DUP3 PUSH1 0x5 ADD PUSH0 PUSH2 0x100 EXP DUP2 SLOAD DUP2 PUSH1 0xFF MUL NOT AND SWAP1 DUP4 PUSH1 0x5 DUP2 GT ISZERO PUSH2 0xDDE JUMPI PUSH2 0xDDD PUSH2 0x17D2 JUMP JUMPDEST JUMPDEST MUL OR SWAP1 SSTORE POP DUP2 PUSH1 0x2 ADD PUSH0 SWAP1 SLOAD SWAP1 PUSH2 0x100 EXP SWAP1 DIV PUSH20 0xFFFFFFFFFFFFFFFFFFFFFFFFFFFFFFFFFFFFFFFF AND PUSH20 0xFFFFFFFFFFFFFFFFFFFFFFFFFFFFFFFFFFFFFFFF AND DUP4 PUSH32 0x952E5301753C5BC62CBFBDBE1B6553CD54796E01DA9CFEAAF29921D6EDE1A726 DUP5 PUSH1 0x4 ADD SLOAD PUSH1 0x40 MLOAD PUSH2 0xE51 SWAP2 SWAP1 PUSH2 0x16EF JUMP JUMPDEST PUSH1 0x40 MLOAD DUP1 SWAP2 SUB SWAP1 LOG3 POP POP POP JUMP JUMPDEST DUP3 PUSH1 0x1 PUSH0 DUP3 DUP2 MSTORE PUSH1 0x20 ADD SWAP1 DUP2 MSTORE PUSH1 0x20 ADD PUSH0 KECCAK256 PUSH1 0x1 ADD PUSH0 SWAP1 SLOAD SWAP1 PUSH2 0x100 EXP SWAP1 DIV PUSH20 0xFFFFFFFFFFFFFFFFFFFFFFFFFFFFFFFFFFFFFFFF AND PUSH20 0xFFFFFFFFFFFFFFFFFFFFFFFFFFFFFFFFFFFFFFFF AND CALLER PUSH20 0xFFFFFFFFFFFFFFFFFFFFFFFFFFFFFFFFFFFFFFFF AND EQ DUP1 PUSH2 0xF2A JUMPI POP PUSH1 0x1 PUSH0 DUP3 DUP2 MSTORE PUSH1 0x20 ADD SWAP1 DUP2 MSTORE PUSH1 0x20 ADD PUSH0 KECCAK256 PUSH1 0x2 ADD PUSH0 SWAP1 SLOAD SWAP1 PUSH2 0x100 EXP SWAP1 DIV PUSH20 0xFFFFFFFFFFFFFFFFFFFFFFFFFFFFFFFFFFFFFFFF AND PUSH20 0xFFFFFFFFFFFFFFFFFFFFFFFFFFFFFFFFFFFFFFFF AND CALLER PUSH20 0xFFFFFFFFFFFFFFFFFFFFFFFFFFFFFFFFFFFFFFFF AND EQ JUMPDEST PUSH2 0xF69 JUMPI PUSH1 0x40 MLOAD PUSH32 0x8C379A000000000000000000000000000000000000000000000000000000000 DUP2 MSTORE PUSH1 0x4 ADD PUSH2 0xF60 SWAP1 PUSH2 0x2367 JUMP JUMPDEST PUSH1 0x40 MLOAD DUP1 SWAP2 SUB SWAP1 REVERT JUMPDEST PUSH0 PUSH1 0x1 PUSH0 DUP7 DUP2 MSTORE PUSH1 0x20 ADD SWAP1 DUP2 MSTORE PUSH1 0x20 ADD PUSH0 KECCAK256 SWAP1 POP PUSH1 0x4 PUSH1 0x5 DUP2 GT ISZERO PUSH2 0xF91 JUMPI PUSH2 0xF90 PUSH2 0x17D2 JUMP JUMPDEST JUMPDEST DUP2 PUSH1 0x5 ADD PUSH0 SWAP1 SLOAD SWAP1 PUSH2 0x100 EXP SWAP1 DIV PUSH1 0xFF AND PUSH1 0x5 DUP2 GT ISZERO PUSH2 0xFB4 JUMPI PUSH2 0xFB3 PUSH2 0x17D2 JUMP JUMPDEST JUMPDEST EQ PUSH2 0xFF4 JUMPI PUSH1 0x40 MLOAD PUSH32 0x8C379A000000000000000000000000000000000000000000000000000000000 DUP2 MSTORE PUSH1 0x4 ADD PUSH2 0xFEB SWAP1 PUSH2 0x23F5 JUMP JUMPDEST PUSH1 0x40 MLOAD DUP1 SWAP2 SUB SWAP1 REVERT JUMPDEST PUSH1 0x1 DUP4 LT ISZERO DUP1 ISZERO PUSH2 0x1006 JUMPI POP PUSH1 0x5 DUP4 GT ISZERO JUMPDEST PUSH2 0x1045 JUMPI PUSH1 0x40 MLOAD PUSH32 0x8C379A000000000000000000000000000000000000000000000000000000000 DUP2 MSTORE PUSH1 0x4 ADD PUSH2 0x103C SWAP1 PUSH2 0x2483 JUMP JUMPDEST PUSH1 0x40 MLOAD DUP1 SWAP2 SUB SWAP1 REVERT JUMPDEST PUSH0 DUP2 PUSH1 0x1 ADD PUSH0 SWAP1 SLOAD SWAP1 PUSH2 0x100 EXP SWAP1 DIV PUSH20 0xFFFFFFFFFFFFFFFFFFFFFFFFFFFFFFFFFFFFFFFF AND PUSH20 0xFFFFFFFFFFFFFFFFFFFFFFFFFFFFFFFFFFFFFFFF AND CALLER PUSH20 0xFFFFFFFFFFFFFFFFFFFFFFFFFFFFFFFFFFFFFFFF AND EQ DUP1 ISZERO PUSH2 0x10F2 JUMPI POP DUP2 PUSH1 0x2 ADD PUSH0 SWAP1 SLOAD SWAP1 PUSH2 0x100 EXP SWAP1 DIV PUSH20 0xFFFFFFFFFFFFFFFFFFFFFFFFFFFFFFFFFFFFFFFF AND PUSH20 0xFFFFFFFFFFFFFFFFFFFFFFFFFFFFFFFFFFFFFFFF AND DUP6 PUSH20 0xFFFFFFFFFFFFFFFFFFFFFFFFFFFFFFFFFFFFFFFF AND EQ JUMPDEST SWAP1 POP DUP1 PUSH2 0x1134 JUMPI PUSH1 0x40 MLOAD PUSH32 0x8C379A000000000000000000000000000000000000000000000000000000000 DUP2 MSTORE PUSH1 0x4 ADD PUSH2 0x112B SWAP1 PUSH2 0x2511 JUMP JUMPDEST PUSH1 0x40 MLOAD DUP1 SWAP2 SUB SWAP1 REVERT JUMPDEST DUP2 PUSH1 0x5 ADD PUSH1 0x1 SWAP1 SLOAD SWAP1 PUSH2 0x100 EXP SWAP1 DIV PUSH1 0xFF AND ISZERO PUSH2 0x1186 JUMPI PUSH1 0x40 MLOAD PUSH32 0x8C379A000000000000000000000000000000000000000000000000000000000 DUP2 MSTORE PUSH1 0x4 ADD PUSH2 0x117D SWAP1 PUSH2 0x259F JUMP JUMPDEST PUSH1 0x40 MLOAD DUP1 SWAP2 SUB SWAP1 REVERT JUMPDEST PUSH1 0x1 DUP3 PUSH1 0x5 ADD PUSH1 0x1 PUSH2 0x100 EXP DUP2 SLOAD DUP2 PUSH1 0xFF MUL NOT AND SWAP1 DUP4 ISZERO ISZERO MUL OR SWAP1 SSTORE POP PUSH0 PUSH0 PUSH0 DUP8 PUSH20 0xFFFFFFFFFFFFFFFFFFFFFFFFFFFFFFFFFFFFFFFF AND PUSH20 0xFFFFFFFFFFFFFFFFFFFFFFFFFFFFFFFFFFFFFFFF AND DUP2 MSTORE PUSH1 0x20 ADD SWAP1 DUP2 MSTORE PUSH1 0x20 ADD PUSH0 KECCAK256 SWAP1 POP DUP5 DUP2 PUSH1 0x1 ADD PUSH0 DUP3 DUP3 SLOAD PUSH2 0x11F5 SWAP2 SWAP1 PUSH2 0x25BD JUMP JUMPDEST SWAP3 POP POP DUP2 SWAP1 SSTORE POP DUP1 PUSH1 0x2 ADD PUSH0 DUP2 SLOAD DUP1 SWAP3 SWAP2 SWAP1 PUSH2 0x1210 SWAP1 PUSH2 0x1FF5 JUMP JUMPDEST SWAP2 SWAP1 POP SSTORE POP PUSH0 DUP2 PUSH1 0x2 ADD SLOAD DUP3 PUSH1 0x1 ADD SLOAD PUSH2 0x122A SWAP2 SWAP1 PUSH2 0x261D JUMP JUMPDEST SWAP1 POP DUP7 PUSH20 0xFFFFFFFFFFFFFFFFFFFFFFFFFFFFFFFFFFFFFFFF AND CALLER PUSH20 0xFFFFFFFFFFFFFFFFFFFFFFFFFFFFFFFFFFFFFFFF AND PUSH32 0x54A5872C5194D5A64BA7DFD246B5CD960294F6A3538838FD7218251998628536 DUP9 DUP5 PUSH1 0x40 MLOAD PUSH2 0x128B SWAP3 SWAP2 SWAP1 PUSH2 0x264D JUMP JUMPDEST PUSH1 0x40 MLOAD DUP1 SWAP2 SUB SWAP1 LOG3 POP POP POP POP POP POP POP POP JUMP JUMPDEST PUSH0 PUSH1 0x20 MSTORE DUP1 PUSH0 MSTORE PUSH1 0x40 PUSH0 KECCAK256 PUSH0 SWAP2 POP SWAP1 POP DUP1 PUSH0 ADD PUSH0 SWAP1 SLOAD SWAP1 PUSH2 0x100 EXP SWAP1 DIV PUSH1 0xFF AND SWAP1 DUP1 PUSH1 0x1 ADD SLOAD SWAP1 DUP1 PUSH1 0x2 ADD SLOAD SWAP1 POP DUP4 JUMP JUMPDEST PUSH0 PUSH0 PUSH0 PUSH0 DUP5 PUSH20 0xFFFFFFFFFFFFFFFFFFFFFFFFFFFFFFFFFFFFFFFF AND PUSH20 0xFFFFFFFFFFFFFFFFFFFFFFFFFFFFFFFFFFFFFFFF AND DUP2 MSTORE PUSH1 0x20 ADD SWAP1 DUP2 MSTORE PUSH1 0x20 ADD PUSH0 KECCAK256 SWAP1 POP PUSH0 DUP2 PUSH1 0x2 ADD SLOAD SUB PUSH2 0x1322 JUMPI PUSH0 SWAP2 POP POP PUSH2 0x133A JUMP JUMPDEST DUP1 PUSH1 0x2 ADD SLOAD DUP2 PUSH1 0x1 ADD SLOAD PUSH2 0x1336 SWAP2 SWAP1 PUSH2 0x261D JUMP JUMPDEST SWAP2 POP POP JUMPDEST SWAP2 SWAP1 POP JUMP JUMPDEST PUSH0 PUSH1 0x1 PUSH0 DUP4 DUP2 MSTORE PUSH1 0x20 ADD SWAP1 DUP2 MSTORE PUSH1 0x20 ADD PUSH0 KECCAK256 SWAP1 POP PUSH1 0x1 PUSH1 0x5 DUP2 GT ISZERO PUSH2 0x1367 JUMPI PUSH2 0x1366 PUSH2 0x17D2 JUMP JUMPDEST JUMPDEST DUP2 PUSH1 0x5 ADD PUSH0 SWAP1 SLOAD SWAP1 PUSH2 0x100 EXP SWAP1 DIV PUSH1 0xFF AND PUSH1 0x5 DUP2 GT ISZERO PUSH2 0x138A JUMPI PUSH2 0x1389 PUSH2 0x17D2 JUMP JUMPDEST JUMPDEST EQ PUSH2 0x13CA JUMPI PUSH1 0x40 MLOAD PUSH32 0x8C379A000000000000000000000000000000000000000000000000000000000 DUP2 MSTORE PUSH1 0x4 ADD PUSH2 0x13C1 SWAP1 PUSH2 0x26E4 JUMP JUMPDEST PUSH1 0x40 MLOAD DUP1 SWAP2 SUB SWAP1 REVERT JUMPDEST CALLER PUSH20 0xFFFFFFFFFFFFFFFFFFFFFFFFFFFFFFFFFFFFFFFF AND DUP2 PUSH1 0x2 ADD PUSH0 SWAP1 SLOAD SWAP1 PUSH2 0x100 EXP SWAP1 DIV PUSH20 0xFFFFFFFFFFFFFFFFFFFFFFFFFFFFFFFFFFFFFFFF AND PUSH20 0xFFFFFFFFFFFFFFFFFFFFFFFFFFFFFFFFFFFFFFFF AND EQ PUSH2 0x145B JUMPI PUSH1 0x40 MLOAD PUSH32 0x8C379A000000000000000000000000000000000000000000000000000000000 DUP2 MSTORE PUSH1 0x4 ADD PUSH2 0x1452 SWAP1 PUSH2 0x2772 JUMP JUMPDEST PUSH1 0x40 MLOAD DUP1 SWAP2 SUB SWAP1 REVERT JUMPDEST PUSH1 0x2 DUP2 PUSH1 0x5 ADD PUSH0 PUSH2 0x100 EXP DUP2 SLOAD DUP2 PUSH1 0xFF MUL NOT AND SWAP1 DUP4 PUSH1 0x5 DUP2 GT ISZERO PUSH2 0x1482 JUMPI PUSH2 0x1481 PUSH2 0x17D2 JUMP JUMPDEST JUMPDEST MUL OR SWAP1 SSTORE POP DUP2 PUSH32 0x7A74AE824FB9B3AA1D244C7279305B8FC7AA0D8D8D5BBB1433A029848B6521BC PUSH1 0x40 MLOAD PUSH1 0x40 MLOAD DUP1 SWAP2 SUB SWAP1 LOG2 POP POP JUMP JUMPDEST PUSH0 PUSH1 0x40 MLOAD SWAP1 POP SWAP1 JUMP JUMPDEST PUSH0 PUSH0 REVERT JUMPDEST PUSH0 PUSH0 REVERT JUMPDEST PUSH1 0x3 DUP2 LT PUSH2 0x14D5 JUMPI PUSH0 PUSH0 REVERT JUMPDEST POP JUMP JUMPDEST PUSH0 DUP2 CALLDATALOAD SWAP1 POP PUSH2 0x14E6 DUP2 PUSH2 0x14C9 JUMP JUMPDEST SWAP3 SWAP2 POP POP JUMP JUMPDEST PUSH0 PUSH1 0x20 DUP3 DUP5 SUB SLT ISZERO PUSH2 0x1501 JUMPI PUSH2 0x1500 PUSH2 0x14C1 JUMP JUMPDEST JUMPDEST PUSH0 PUSH2 0x150E DUP5 DUP3 DUP6 ADD PUSH2 0x14D8 JUMP JUMPDEST SWAP2 POP POP SWAP3 SWAP2 POP POP JUMP JUMPDEST PUSH0 PUSH0 REVERT JUMPDEST PUSH0 PUSH0 REVERT JUMPDEST PUSH0 PUSH1 0x1F NOT PUSH1 0x1F DUP4 ADD AND SWAP1 POP SWAP2 SWAP1 POP JUMP JUMPDEST PUSH32 0x4E487B7100000000000000000000000000000000000000000000000000000000 PUSH0 MSTORE PUSH1 0x41 PUSH1 0x4 MSTORE PUSH1 0x24 PUSH0 REVERT JUMPDEST PUSH2 0x1565 DUP3 PUSH2 0x151F JUMP JUMPDEST DUP2 ADD DUP2 DUP2 LT PUSH8 0xFFFFFFFFFFFFFFFF DUP3 GT OR ISZERO PUSH2 0x1584 JUMPI PUSH2 0x1583 PUSH2 0x152F JUMP JUMPDEST JUMPDEST DUP1 PUSH1 0x40 MSTORE POP POP POP JUMP JUMPDEST PUSH0 PUSH2 0x1596 PUSH2 0x14B8 JUMP JUMPDEST SWAP1 POP PUSH2 0x15A2 DUP3 DUP3 PUSH2 0x155C JUMP JUMPDEST SWAP2 SWAP1 POP JUMP JUMPDEST PUSH0 PUSH8 0xFFFFFFFFFFFFFFFF DUP3 GT ISZERO PUSH2 0x15C1 JUMPI PUSH2 0x15C0 PUSH2 0x152F JUMP JUMPDEST JUMPDEST PUSH2 0x15CA DUP3 PUSH2 0x151F JUMP JUMPDEST SWAP1 POP PUSH1 0x20 DUP2 ADD SWAP1 POP SWAP2 SWAP1 POP JUMP JUMPDEST DUP3 DUP2 DUP4 CALLDATACOPY PUSH0 DUP4 DUP4 ADD MSTORE POP POP POP JUMP JUMPDEST PUSH0 PUSH2 0x15F7 PUSH2 0x15F2 DUP5 PUSH2 0x15A7 JUMP JUMPDEST PUSH2 0x158D JUMP JUMPDEST SWAP1 POP DUP3 DUP2 MSTORE PUSH1 0x20 DUP2 ADD DUP5 DUP5 DUP5 ADD GT ISZERO PUSH2 0x1613 JUMPI PUSH2 0x1612 PUSH2 0x151B JUMP JUMPDEST JUMPDEST PUSH2 0x161E DUP5 DUP3 DUP6 PUSH2 0x15D7 JUMP JUMPDEST POP SWAP4 SWAP3 POP POP POP JUMP JUMPDEST PUSH0 DUP3 PUSH1 0x1F DUP4 ADD SLT PUSH2 0x163A JUMPI PUSH2 0x1639 PUSH2 0x1517 JUMP JUMPDEST JUMPDEST DUP2 CALLDATALOAD PUSH2 0x164A DUP5 DUP3 PUSH1 0x20 DUP7 ADD PUSH2 0x15E5 JUMP JUMPDEST SWAP2 POP POP SWAP3 SWAP2 POP POP JUMP JUMPDEST PUSH0 DUP2 SWAP1 POP SWAP2 SWAP1 POP JUMP JUMPDEST PUSH2 0x1665 DUP2 PUSH2 0x1653 JUMP JUMPDEST DUP2 EQ PUSH2 0x166F JUMPI PUSH0 PUSH0 REVERT JUMPDEST POP JUMP JUMPDEST PUSH0 DUP2 CALLDATALOAD SWAP1 POP PUSH2 0x1680 DUP2 PUSH2 0x165C JUMP JUMPDEST SWAP3 SWAP2 POP POP JUMP JUMPDEST PUSH0 PUSH0 PUSH1 0x40 DUP4 DUP6 SUB SLT ISZERO PUSH2 0x169C JUMPI PUSH2 0x169B PUSH2 0x14C1 JUMP JUMPDEST JUMPDEST PUSH0 DUP4 ADD CALLDATALOAD PUSH8 0xFFFFFFFFFFFFFFFF DUP2 GT ISZERO PUSH2 0x16B9 JUMPI PUSH2 0x16B8 PUSH2 0x14C5 JUMP JUMPDEST JUMPDEST PUSH2 0x16C5 DUP6 DUP3 DUP7 ADD PUSH2 0x1626 JUMP JUMPDEST SWAP3 POP POP PUSH1 0x20 PUSH2 0x16D6 DUP6 DUP3 DUP7 ADD PUSH2 0x1672 JUMP JUMPDEST SWAP2 POP POP SWAP3 POP SWAP3 SWAP1 POP JUMP JUMPDEST PUSH2 0x16E9 DUP2 PUSH2 0x1653 JUMP JUMPDEST DUP3 MSTORE POP POP JUMP JUMPDEST PUSH0 PUSH1 0x20 DUP3 ADD SWAP1 POP PUSH2 0x1702 PUSH0 DUP4 ADD DUP5 PUSH2 0x16E0 JUMP JUMPDEST SWAP3 SWAP2 POP POP JUMP JUMPDEST PUSH0 PUSH1 0x20 DUP3 DUP5 SUB SLT ISZERO PUSH2 0x171D JUMPI PUSH2 0x171C PUSH2 0x14C1 JUMP JUMPDEST JUMPDEST PUSH0 PUSH2 0x172A DUP5 DUP3 DUP6 ADD PUSH2 0x1672 JUMP JUMPDEST SWAP2 POP POP SWAP3 SWAP2 POP POP JUMP JUMPDEST PUSH0 PUSH20 0xFFFFFFFFFFFFFFFFFFFFFFFFFFFFFFFFFFFFFFFF DUP3 AND SWAP1 POP SWAP2 SWAP1 POP JUMP JUMPDEST PUSH0 PUSH2 0x175C DUP3 PUSH2 0x1733 JUMP JUMPDEST SWAP1 POP SWAP2 SWAP1 POP JUMP JUMPDEST PUSH2 0x176C DUP2 PUSH2 0x1752 JUMP JUMPDEST DUP3 MSTORE POP POP JUMP JUMPDEST PUSH0 DUP2 MLOAD SWAP1 POP SWAP2 SWAP1 POP JUMP JUMPDEST PUSH0 DUP3 DUP3 MSTORE PUSH1 0x20 DUP3 ADD SWAP1 POP SWAP3 SWAP2 POP POP JUMP JUMPDEST DUP3 DUP2 DUP4 MCOPY PUSH0 DUP4 DUP4 ADD MSTORE POP POP POP JUMP JUMPDEST PUSH0 PUSH2 0x17A4 DUP3 PUSH2 0x1772 JUMP JUMPDEST PUSH2 0x17AE DUP2 DUP6 PUSH2 0x177C JUMP JUMPDEST SWAP4 POP PUSH2 0x17BE DUP2 DUP6 PUSH1 0x20 DUP7 ADD PUSH2 0x178C JUMP JUMPDEST PUSH2 0x17C7 DUP2 PUSH2 0x151F JUMP JUMPDEST DUP5 ADD SWAP2 POP POP SWAP3 SWAP2 POP POP JUMP JUMPDEST PUSH32 0x4E487B7100000000000000000000000000000000000000000000000000000000 PUSH0 MSTORE PUSH1 0x21 PUSH1 0x4 MSTORE PUSH1 0x24 PUSH0 REVERT JUMPDEST PUSH1 0x6 DUP2 LT PUSH2 0x1810 JUMPI PUSH2 0x180F PUSH2 0x17D2 JUMP JUMPDEST JUMPDEST POP JUMP JUMPDEST PUSH0 DUP2 SWAP1 POP PUSH2 0x1820 DUP3 PUSH2 0x17FF JUMP JUMPDEST SWAP2 SWAP1 POP JUMP JUMPDEST PUSH0 PUSH2 0x182F DUP3 PUSH2 0x1813 JUMP JUMPDEST SWAP1 POP SWAP2 SWAP1 POP JUMP JUMPDEST PUSH2 0x183F DUP2 PUSH2 0x1825 JUMP JUMPDEST DUP3 MSTORE POP POP JUMP JUMPDEST PUSH0 DUP2 ISZERO ISZERO SWAP1 POP SWAP2 SWAP1 POP JUMP JUMPDEST PUSH2 0x1859 DUP2 PUSH2 0x1845 JUMP JUMPDEST DUP3 MSTORE POP POP JUMP JUMPDEST PUSH0 PUSH1 0xE0 DUP3 ADD SWAP1 POP PUSH2 0x1872 PUSH0 DUP4 ADD DUP11 PUSH2 0x16E0 JUMP JUMPDEST PUSH2 0x187F PUSH1 0x20 DUP4 ADD DUP10 PUSH2 0x1763 JUMP JUMPDEST PUSH2 0x188C PUSH1 0x40 DUP4 ADD DUP9 PUSH2 0x1763 JUMP JUMPDEST DUP2 DUP2 SUB PUSH1 0x60 DUP4 ADD MSTORE PUSH2 0x189E DUP2 DUP8 PUSH2 0x179A JUMP JUMPDEST SWAP1 POP PUSH2 0x18AD PUSH1 0x80 DUP4 ADD DUP7 PUSH2 0x16E0 JUMP JUMPDEST PUSH2 0x18BA PUSH1 0xA0 DUP4 ADD DUP6 PUSH2 0x1836 JUMP JUMPDEST PUSH2 0x18C7 PUSH1 0xC0 DUP4 ADD DUP5 PUSH2 0x1850 JUMP JUMPDEST SWAP9 SWAP8 POP POP POP POP POP POP POP POP JUMP JUMPDEST PUSH0 PUSH1 0x20 DUP3 ADD SWAP1 POP PUSH2 0x18E6 PUSH0 DUP4 ADD DUP5 PUSH2 0x1836 JUMP JUMPDEST SWAP3 SWAP2 POP POP JUMP JUMPDEST PUSH0 PUSH2 0x18F6 DUP3 PUSH2 0x1733 JUMP JUMPDEST SWAP1 POP SWAP2 SWAP1 POP JUMP JUMPDEST PUSH2 0x1906 DUP2 PUSH2 0x18EC JUMP JUMPDEST DUP2 EQ PUSH2 0x1910 JUMPI PUSH0 PUSH0 REVERT JUMPDEST POP JUMP JUMPDEST PUSH0 DUP2 CALLDATALOAD SWAP1 POP PUSH2 0x1921 DUP2 PUSH2 0x18FD JUMP JUMPDEST SWAP3 SWAP2 POP POP JUMP JUMPDEST PUSH0 PUSH0 PUSH0 PUSH1 0x60 DUP5 DUP7 SUB SLT ISZERO PUSH2 0x193E JUMPI PUSH2 0x193D PUSH2 0x14C1 JUMP JUMPDEST JUMPDEST PUSH0 PUSH2 0x194B DUP7 DUP3 DUP8 ADD PUSH2 0x1672 JUMP JUMPDEST SWAP4 POP POP PUSH1 0x20 PUSH2 0x195C DUP7 DUP3 DUP8 ADD PUSH2 0x1913 JUMP JUMPDEST SWAP3 POP POP PUSH1 0x40 PUSH2 0x196D DUP7 DUP3 DUP8 ADD PUSH2 0x1672 JUMP JUMPDEST SWAP2 POP POP SWAP3 POP SWAP3 POP SWAP3 JUMP JUMPDEST PUSH0 PUSH1 0x20 DUP3 DUP5 SUB SLT ISZERO PUSH2 0x198C JUMPI PUSH2 0x198B PUSH2 0x14C1 JUMP JUMPDEST JUMPDEST PUSH0 PUSH2 0x1999 DUP5 DUP3 DUP6 ADD PUSH2 0x1913 JUMP JUMPDEST SWAP2 POP POP SWAP3 SWAP2 POP POP JUMP JUMPDEST PUSH1 0x3 DUP2 LT PUSH2 0x19B3 JUMPI PUSH2 0x19B2 PUSH2 0x17D2 JUMP JUMPDEST JUMPDEST POP JUMP JUMPDEST PUSH0 DUP2 SWAP1 POP PUSH2 0x19C3 DUP3 PUSH2 0x19A2 JUMP JUMPDEST SWAP2 SWAP1 POP JUMP JUMPDEST PUSH0 PUSH2 0x19D2 DUP3 PUSH2 0x19B6 JUMP JUMPDEST SWAP1 POP SWAP2 SWAP1 POP JUMP JUMPDEST PUSH2 0x19E2 DUP2 PUSH2 0x19C8 JUMP JUMPDEST DUP3 MSTORE POP POP JUMP JUMPDEST PUSH0 PUSH1 0x60 DUP3 ADD SWAP1 POP PUSH2 0x19FB PUSH0 DUP4 ADD DUP7 PUSH2 0x19D9 JUMP JUMPDEST PUSH2 0x1A08 PUSH1 0x20 DUP4 ADD DUP6 PUSH2 0x16E0 JUMP JUMPDEST PUSH2 0x1A15 PUSH1 0x40 DUP4 ADD DUP5 PUSH2 0x16E0 JUMP JUMPDEST SWAP5 SWAP4 POP POP POP POP JUMP JUMPDEST PUSH32 0x47696754727573743A205573657220616C726561647920726567697374657265 PUSH0 DUP3 ADD MSTORE PUSH32 0x642E000000000000000000000000000000000000000000000000000000000000 PUSH1 0x20 DUP3 ADD MSTORE POP JUMP JUMPDEST PUSH0 PUSH2 0x1A77 PUSH1 0x22 DUP4 PUSH2 0x177C JUMP JUMPDEST SWAP2 POP PUSH2 0x1A82 DUP3 PUSH2 0x1A1D JUMP JUMPDEST PUSH1 0x40 DUP3 ADD SWAP1 POP SWAP2 SWAP1 POP JUMP JUMPDEST PUSH0 PUSH1 0x20 DUP3 ADD SWAP1 POP DUP2 DUP2 SUB PUSH0 DUP4 ADD MSTORE PUSH2 0x1AA4 DUP2 PUSH2 0x1A6B JUMP JUMPDEST SWAP1 POP SWAP2 SWAP1 POP JUMP JUMPDEST PUSH32 0x47696754727573743A20496E76616C696420726F6C6520737065636966696564 PUSH0 DUP3 ADD MSTORE PUSH32 0x2E00000000000000000000000000000000000000000000000000000000000000 PUSH1 0x20 DUP3 ADD MSTORE POP JUMP JUMPDEST PUSH0 PUSH2 0x1B05 PUSH1 0x21 DUP4 PUSH2 0x177C JUMP JUMPDEST SWAP2 POP PUSH2 0x1B10 DUP3 PUSH2 0x1AAB JUMP JUMPDEST PUSH1 0x40 DUP3 ADD SWAP1 POP SWAP2 SWAP1 POP JUMP JUMPDEST PUSH0 PUSH1 0x20 DUP3 ADD SWAP1 POP DUP2 DUP2 SUB PUSH0 DUP4 ADD MSTORE PUSH2 0x1B32 DUP2 PUSH2 0x1AF9 JUMP JUMPDEST SWAP1 POP SWAP2 SWAP1 POP JUMP JUMPDEST PUSH0 PUSH1 0x20 DUP3 ADD SWAP1 POP PUSH2 0x1B4C PUSH0 DUP4 ADD DUP5 PUSH2 0x19D9 JUMP JUMPDEST SWAP3 SWAP2 POP POP JUMP JUMPDEST PUSH32 0x47696754727573743A2043616C6C6572206D7573742068617665207468652072 PUSH0 DUP3 ADD MSTORE PUSH32 0x6571756972656420726F6C652E00000000000000000000000000000000000000 PUSH1 0x20 DUP3 ADD MSTORE POP JUMP JUMPDEST PUSH0 PUSH2 0x1BAC PUSH1 0x2D DUP4 PUSH2 0x177C JUMP JUMPDEST SWAP2 POP PUSH2 0x1BB7 DUP3 PUSH2 0x1B52 JUMP JUMPDEST PUSH1 0x40 DUP3 ADD SWAP1 POP SWAP2 SWAP1 POP JUMP JUMPDEST PUSH0 PUSH1 0x20 DUP3 ADD SWAP1 POP DUP2 DUP2 SUB PUSH0 DUP4 ADD MSTORE PUSH2 0x1BD9 DUP2 PUSH2 0x1BA0 JUMP JUMPDEST SWAP1 POP SWAP2 SWAP1 POP JUMP JUMPDEST PUSH32 0x47696754727573743A20466565206D7573742062652067726561746572207468 PUSH0 DUP3 ADD MSTORE PUSH32 0x616E207A65726F2E000000000000000000000000000000000000000000000000 PUSH1 0x20 DUP3 ADD MSTORE POP JUMP JUMPDEST PUSH0 PUSH2 0x1C3A PUSH1 0x28 DUP4 PUSH2 0x177C JUMP JUMPDEST SWAP2 POP PUSH2 0x1C45 DUP3 PUSH2 0x1BE0 JUMP JUMPDEST PUSH1 0x40 DUP3 ADD SWAP1 POP SWAP2 SWAP1 POP JUMP JUMPDEST PUSH0 PUSH1 0x20 DUP3 ADD SWAP1 POP DUP2 DUP2 SUB PUSH0 DUP4 ADD MSTORE PUSH2 0x1C67 DUP2 PUSH2 0x1C2E JUMP JUMPDEST SWAP1 POP SWAP2 SWAP1 POP JUMP JUMPDEST PUSH32 0x47696754727573743A2053656E742076616C7565206D757374206D6174636820 PUSH0 DUP3 ADD MSTORE PUSH32 0x746865207370656369666965642066656520666F7220657363726F772E000000 PUSH1 0x20 DUP3 ADD MSTORE POP JUMP JUMPDEST PUSH0 PUSH2 0x1CC8 PUSH1 0x3D DUP4 PUSH2 0x177C JUMP JUMPDEST SWAP2 POP PUSH2 0x1CD3 DUP3 PUSH2 0x1C6E JUMP JUMPDEST PUSH1 0x40 DUP3 ADD SWAP1 POP SWAP2 SWAP1 POP JUMP JUMPDEST PUSH0 PUSH1 0x20 DUP3 ADD SWAP1 POP DUP2 DUP2 SUB PUSH0 DUP4 ADD MSTORE PUSH2 0x1CF5 DUP2 PUSH2 0x1CBC JUMP JUMPDEST SWAP1 POP SWAP2 SWAP1 POP JUMP JUMPDEST PUSH32 0x4E487B7100000000000000000000000000000000000000000000000000000000 PUSH0 MSTORE PUSH1 0x22 PUSH1 0x4 MSTORE PUSH1 0x24 PUSH0 REVERT JUMPDEST PUSH0 PUSH1 0x2 DUP3 DIV SWAP1 POP PUSH1 0x1 DUP3 AND DUP1 PUSH2 0x1D40 JUMPI PUSH1 0x7F DUP3 AND SWAP2 POP JUMPDEST PUSH1 0x20 DUP3 LT DUP2 SUB PUSH2 0x1D53 JUMPI PUSH2 0x1D52 PUSH2 0x1CFC JUMP JUMPDEST JUMPDEST POP SWAP2 SWAP1 POP JUMP JUMPDEST PUSH0 DUP2 SWAP1 POP DUP2 PUSH0 MSTORE PUSH1 0x20 PUSH0 KECCAK256 SWAP1 POP SWAP2 SWAP1 POP JUMP JUMPDEST PUSH0 PUSH1 0x20 PUSH1 0x1F DUP4 ADD DIV SWAP1 POP SWAP2 SWAP1 POP JUMP JUMPDEST PUSH0 DUP3 DUP3 SHL SWAP1 POP SWAP3 SWAP2 POP POP JUMP JUMPDEST PUSH0 PUSH1 0x8 DUP4 MUL PUSH2 0x1DB5 PUSH32 0xFFFFFFFFFFFFFFFFFFFFFFFFFFFFFFFFFFFFFFFFFFFFFFFFFFFFFFFFFFFFFFFF DUP3 PUSH2 0x1D7A JUMP JUMPDEST PUSH2 0x1DBF DUP7 DUP4 PUSH2 0x1D7A JUMP JUMPDEST SWAP6 POP DUP1 NOT DUP5 AND SWAP4 POP DUP1 DUP7 AND DUP5 OR SWAP3 POP POP POP SWAP4 SWAP3 POP POP POP JUMP JUMPDEST PUSH0 DUP2 SWAP1 POP SWAP2 SWAP1 POP JUMP JUMPDEST PUSH0 PUSH2 0x1DFA PUSH2 0x1DF5 PUSH2 0x1DF0 DUP5 PUSH2 0x1653 JUMP JUMPDEST PUSH2 0x1DD7 JUMP JUMPDEST PUSH2 0x1653 JUMP JUMPDEST SWAP1 POP SWAP2 SWAP1 POP JUMP JUMPDEST PUSH0 DUP2 SWAP1 POP SWAP2 SWAP1 POP JUMP JUMPDEST PUSH2 0x1E13 DUP4 PUSH2 0x1DE0 JUMP JUMPDEST PUSH2 0x1E27 PUSH2 0x1E1F DUP3 PUSH2 0x1E01 JUMP JUMPDEST DUP5 DUP5 SLOAD PUSH2 0x1D86 JUMP JUMPDEST DUP3 SSTORE POP POP POP POP JUMP JUMPDEST PUSH0 PUSH0 SWAP1 POP SWAP1 JUMP JUMPDEST PUSH2 0x1E3E PUSH2 0x1E2F JUMP JUMPDEST PUSH2 0x1E49 DUP2 DUP5 DUP5 PUSH2 0x1E0A JUMP JUMPDEST POP POP POP JUMP JUMPDEST JUMPDEST DUP2 DUP2 LT ISZERO PUSH2 0x1E6C JUMPI PUSH2 0x1E61 PUSH0 DUP3 PUSH2 0x1E36 JUMP JUMPDEST PUSH1 0x1 DUP2 ADD SWAP1 POP PUSH2 0x1E4F JUMP JUMPDEST POP POP JUMP JUMPDEST PUSH1 0x1F DUP3 GT ISZERO PUSH2 0x1EB1 JUMPI PUSH2 0x1E82 DUP2 PUSH2 0x1D59 JUMP JUMPDEST PUSH2 0x1E8B DUP5 PUSH2 0x1D6B JUMP JUMPDEST DUP2 ADD PUSH1 0x20 DUP6 LT ISZERO PUSH2 0x1E9A JUMPI DUP2 SWAP1 POP JUMPDEST PUSH2 0x1EAE PUSH2 0x1EA6 DUP6 PUSH2 0x1D6B JUMP JUMPDEST DUP4 ADD DUP3 PUSH2 0x1E4E JUMP JUMPDEST POP POP JUMPDEST POP POP POP JUMP JUMPDEST PUSH0 DUP3 DUP3 SHR SWAP1 POP SWAP3 SWAP2 POP POP JUMP JUMPDEST PUSH0 PUSH2 0x1ED1 PUSH0 NOT DUP5 PUSH1 0x8 MUL PUSH2 0x1EB6 JUMP JUMPDEST NOT DUP1 DUP4 AND SWAP2 POP POP SWAP3 SWAP2 POP POP JUMP JUMPDEST PUSH0 PUSH2 0x1EE9 DUP4 DUP4 PUSH2 0x1EC2 JUMP JUMPDEST SWAP2 POP DUP3 PUSH1 0x2 MUL DUP3 OR SWAP1 POP SWAP3 SWAP2 POP POP JUMP JUMPDEST PUSH2 0x1F02 DUP3 PUSH2 0x1772 JUMP JUMPDEST PUSH8 0xFFFFFFFFFFFFFFFF DUP2 GT ISZERO PUSH2 0x1F1B JUMPI PUSH2 0x1F1A PUSH2 0x152F JUMP JUMPDEST JUMPDEST PUSH2 0x1F25 DUP3 SLOAD PUSH2 0x1D29 JUMP JUMPDEST PUSH2 0x1F30 DUP3 DUP3 DUP6 PUSH2 0x1E70 JUMP JUMPDEST PUSH0 PUSH1 0x20 SWAP1 POP PUSH1 0x1F DUP4 GT PUSH1 0x1 DUP2 EQ PUSH2 0x1F61 JUMPI PUSH0 DUP5 ISZERO PUSH2 0x1F4F JUMPI DUP3 DUP8 ADD MLOAD SWAP1 POP JUMPDEST PUSH2 0x1F59 DUP6 DUP3 PUSH2 0x1EDE JUMP JUMPDEST DUP7 SSTORE POP PUSH2 0x1FC0 JUMP JUMPDEST PUSH1 0x1F NOT DUP5 AND PUSH2 0x1F6F DUP7 PUSH2 0x1D59 JUMP JUMPDEST PUSH0 JUMPDEST DUP3 DUP2 LT ISZERO PUSH2 0x1F96 JUMPI DUP5 DUP10 ADD MLOAD DUP3 SSTORE PUSH1 0x1 DUP3 ADD SWAP2 POP PUSH1 0x20 DUP6 ADD SWAP5 POP PUSH1 0x20 DUP2 ADD SWAP1 POP PUSH2 0x1F71 JUMP JUMPDEST DUP7 DUP4 LT ISZERO PUSH2 0x1FB3 JUMPI DUP5 DUP10 ADD MLOAD PUSH2 0x1FAF PUSH1 0x1F DUP10 AND DUP3 PUSH2 0x1EC2 JUMP JUMPDEST DUP4 SSTORE POP JUMPDEST PUSH1 0x1 PUSH1 0x2 DUP9 MUL ADD DUP9 SSTORE POP POP POP JUMPDEST POP POP POP POP POP POP JUMP JUMPDEST PUSH32 0x4E487B7100000000000000000000000000000000000000000000000000000000 PUSH0 MSTORE PUSH1 0x11 PUSH1 0x4 MSTORE PUSH1 0x24 PUSH0 REVERT JUMPDEST PUSH0 PUSH2 0x1FFF DUP3 PUSH2 0x1653 JUMP JUMPDEST SWAP2 POP PUSH32 0xFFFFFFFFFFFFFFFFFFFFFFFFFFFFFFFFFFFFFFFFFFFFFFFFFFFFFFFFFFFFFFFF DUP3 SUB PUSH2 0x2031 JUMPI PUSH2 0x2030 PUSH2 0x1FC8 JUMP JUMPDEST JUMPDEST PUSH1 0x1 DUP3 ADD SWAP1 POP SWAP2 SWAP1 POP JUMP JUMPDEST PUSH32 0x47696754727573743A20476967206973206E6F74206F70656E2E000000000000 PUSH0 DUP3 ADD MSTORE POP JUMP JUMPDEST PUSH0 PUSH2 0x2070 PUSH1 0x1A DUP4 PUSH2 0x177C JUMP JUMPDEST SWAP2 POP PUSH2 0x207B DUP3 PUSH2 0x203C JUMP JUMPDEST PUSH1 0x20 DUP3 ADD SWAP1 POP SWAP2 SWAP1 POP JUMP JUMPDEST PUSH0 PUSH1 0x20 DUP3 ADD SWAP1 POP DUP2 DUP2 SUB PUSH0 DUP4 ADD MSTORE PUSH2 0x209D DUP2 PUSH2 0x2064 JUMP JUMPDEST SWAP1 POP SWAP2 SWAP1 POP JUMP JUMPDEST PUSH32 0x47696754727573743A2043616E6E6F742061636365707420796F7572206F776E PUSH0 DUP3 ADD MSTORE PUSH32 0x206769672E000000000000000000000000000000000000000000000000000000 PUSH1 0x20 DUP3 ADD MSTORE POP JUMP JUMPDEST PUSH0 PUSH2 0x20FE PUSH1 0x25 DUP4 PUSH2 0x177C JUMP JUMPDEST SWAP2 POP PUSH2 0x2109 DUP3 PUSH2 0x20A4 JUMP JUMPDEST PUSH1 0x40 DUP3 ADD SWAP1 POP SWAP2 SWAP1 POP JUMP JUMPDEST PUSH0 PUSH1 0x20 DUP3 ADD SWAP1 POP DUP2 DUP2 SUB PUSH0 DUP4 ADD MSTORE PUSH2 0x212B DUP2 PUSH2 0x20F2 JUMP JUMPDEST SWAP1 POP SWAP2 SWAP1 POP JUMP JUMPDEST PUSH32 0x47696754727573743A20476967206D75737420626520636F6D706C6574656420 PUSH0 DUP3 ADD MSTORE PUSH32 0x627920776F726B65722066697273742E00000000000000000000000000000000 PUSH1 0x20 DUP3 ADD MSTORE POP JUMP JUMPDEST PUSH0 PUSH2 0x218C PUSH1 0x30 DUP4 PUSH2 0x177C JUMP JUMPDEST SWAP2 POP PUSH2 0x2197 DUP3 PUSH2 0x2132 JUMP JUMPDEST PUSH1 0x40 DUP3 ADD SWAP1 POP SWAP2 SWAP1 POP JUMP JUMPDEST PUSH0 PUSH1 0x20 DUP3 ADD SWAP1 POP DUP2 DUP2 SUB PUSH0 DUP4 ADD MSTORE PUSH2 0x21B9 DUP2 PUSH2 0x2180 JUMP JUMPDEST SWAP1 POP SWAP2 SWAP1 POP JUMP JUMPDEST PUSH32 0x47696754727573743A204F6E6C792074686520636F6E74726163746F72206361 PUSH0 DUP3 ADD MSTORE PUSH32 0x6E20636F6E6669726D20746865206769672E0000000000000000000000000000 PUSH1 0x20 DUP3 ADD MSTORE POP JUMP JUMPDEST PUSH0 PUSH2 0x221A PUSH1 0x32 DUP4 PUSH2 0x177C JUMP JUMPDEST SWAP2 POP PUSH2 0x2225 DUP3 PUSH2 0x21C0 JUMP JUMPDEST PUSH1 0x40 DUP3 ADD SWAP1 POP SWAP2 SWAP1 POP JUMP JUMPDEST PUSH0 PUSH1 0x20 DUP3 ADD SWAP1 POP DUP2 DUP2 SUB PUSH0 DUP4 ADD MSTORE PUSH2 0x2247 DUP2 PUSH2 0x220E JUMP JUMPDEST SWAP1 POP SWAP2 SWAP1 POP JUMP JUMPDEST PUSH0 DUP2 SWAP1 POP SWAP3 SWAP2 POP POP JUMP JUMPDEST POP JUMP JUMPDEST PUSH0 PUSH2 0x2266 PUSH0 DUP4 PUSH2 0x224E JUMP JUMPDEST SWAP2 POP PUSH2 0x2271 DUP3 PUSH2 0x2258 JUMP JUMPDEST PUSH0 DUP3 ADD SWAP1 POP SWAP2 SWAP1 POP JUMP JUMPDEST PUSH0 PUSH2 0x2285 DUP3 PUSH2 0x225B JUMP JUMPDEST SWAP2 POP DUP2 SWAP1 POP SWAP2 SWAP1 POP JUMP JUMPDEST PUSH32 0x47696754727573743A20455448207472616E73666572206661696C65642E0000 PUSH0 DUP3 ADD MSTORE POP JUMP JUMPDEST PUSH0 PUSH2 0x22C3 PUSH1 0x1E DUP4 PUSH2 0x177C JUMP JUMPDEST SWAP2 POP PUSH2 0x22CE DUP3 PUSH2 0x228F JUMP JUMPDEST PUSH1 0x20 DUP3 ADD SWAP1 POP SWAP2 SWAP1 POP JUMP JUMPDEST PUSH0 PUSH1 0x20 DUP3 ADD SWAP1 POP DUP2 DUP2 SUB PUSH0 DUP4 ADD MSTORE PUSH2 0x22F0 DUP2 PUSH2 0x22B7 JUMP JUMPDEST SWAP1 POP SWAP2 SWAP1 POP JUMP JUMPDEST PUSH32 0x47696754727573743A2043616C6C6572206973206E6F74206120706172746963 PUSH0 DUP3 ADD MSTORE PUSH32 0x6970616E742E0000000000000000000000000000000000000000000000000000 PUSH1 0x20 DUP3 ADD MSTORE POP JUMP JUMPDEST PUSH0 PUSH2 0x2351 PUSH1 0x26 DUP4 PUSH2 0x177C JUMP JUMPDEST SWAP2 POP PUSH2 0x235C DUP3 PUSH2 0x22F7 JUMP JUMPDEST PUSH1 0x40 DUP3 ADD SWAP1 POP SWAP2 SWAP1 POP JUMP JUMPDEST PUSH0 PUSH1 0x20 DUP3 ADD SWAP1 POP DUP2 DUP2 SUB PUSH0 DUP4 ADD MSTORE PUSH2 0x237E DUP2 PUSH2 0x2345 JUMP JUMPDEST SWAP1 POP SWAP2 SWAP1 POP JUMP JUMPDEST PUSH32 0x47696754727573743A20526174696E67206973206F6E6C7920616C6C6F776564 PUSH0 DUP3 ADD MSTORE PUSH32 0x206166746572207061796D656E742E0000000000000000000000000000000000 PUSH1 0x20 DUP3 ADD MSTORE POP JUMP JUMPDEST PUSH0 PUSH2 0x23DF PUSH1 0x2F DUP4 PUSH2 0x177C JUMP JUMPDEST SWAP2 POP PUSH2 0x23EA DUP3 PUSH2 0x2385 JUMP JUMPDEST PUSH1 0x40 DUP3 ADD SWAP1 POP SWAP2 SWAP1 POP JUMP JUMPDEST PUSH0 PUSH1 0x20 DUP3 ADD SWAP1 POP DUP2 DUP2 SUB PUSH0 DUP4 ADD MSTORE PUSH2 0x240C DUP2 PUSH2 0x23D3 JUMP JUMPDEST SWAP1 POP SWAP2 SWAP1 POP JUMP JUMPDEST PUSH32 0x47696754727573743A20526174696E67206D757374206265206265747765656E PUSH0 DUP3 ADD MSTORE PUSH32 0x203120616E6420352E0000000000000000000000000000000000000000000000 PUSH1 0x20 DUP3 ADD MSTORE POP JUMP JUMPDEST PUSH0 PUSH2 0x246D PUSH1 0x29 DUP4 PUSH2 0x177C JUMP JUMPDEST SWAP2 POP PUSH2 0x2478 DUP3 PUSH2 0x2413 JUMP JUMPDEST PUSH1 0x40 DUP3 ADD SWAP1 POP SWAP2 SWAP1 POP JUMP JUMPDEST PUSH0 PUSH1 0x20 DUP3 ADD SWAP1 POP DUP2 DUP2 SUB PUSH0 DUP4 ADD MSTORE PUSH2 0x249A DUP2 PUSH2 0x2461 JUMP JUMPDEST SWAP1 POP SWAP2 SWAP1 POP JUMP JUMPDEST PUSH32 0x47696754727573743A204F6E6C792074686520436F6E74726163746F72206361 PUSH0 DUP3 ADD MSTORE PUSH32 0x6E20726174652074686520576F726B65722E0000000000000000000000000000 PUSH1 0x20 DUP3 ADD MSTORE POP JUMP JUMPDEST PUSH0 PUSH2 0x24FB PUSH1 0x32 DUP4 PUSH2 0x177C JUMP JUMPDEST SWAP2 POP PUSH2 0x2506 DUP3 PUSH2 0x24A1 JUMP JUMPDEST PUSH1 0x40 DUP3 ADD SWAP1 POP SWAP2 SWAP1 POP JUMP JUMPDEST PUSH0 PUSH1 0x20 DUP3 ADD SWAP1 POP DUP2 DUP2 SUB PUSH0 DUP4 ADD MSTORE PUSH2 0x2528 DUP2 PUSH2 0x24EF JUMP JUMPDEST SWAP1 POP SWAP2 SWAP1 POP JUMP JUMPDEST PUSH32 0x47696754727573743A20436F6E74726163746F7220616C726561647920726174 PUSH0 DUP3 ADD MSTORE PUSH32 0x65642074686520776F726B657220666F722074686973206769672E0000000000 PUSH1 0x20 DUP3 ADD MSTORE POP JUMP JUMPDEST PUSH0 PUSH2 0x2589 PUSH1 0x3B DUP4 PUSH2 0x177C JUMP JUMPDEST SWAP2 POP PUSH2 0x2594 DUP3 PUSH2 0x252F JUMP JUMPDEST PUSH1 0x40 DUP3 ADD SWAP1 POP SWAP2 SWAP1 POP JUMP JUMPDEST PUSH0 PUSH1 0x20 DUP3 ADD SWAP1 POP DUP2 DUP2 SUB PUSH0 DUP4 ADD MSTORE PUSH2 0x25B6 DUP2 PUSH2 0x257D JUMP JUMPDEST SWAP1 POP SWAP2 SWAP1 POP JUMP JUMPDEST PUSH0 PUSH2 0x25C7 DUP3 PUSH2 0x1653 JUMP JUMPDEST SWAP2 POP PUSH2 0x25D2 DUP4 PUSH2 0x1653 JUMP JUMPDEST SWAP3 POP DUP3 DUP3 ADD SWAP1 POP DUP1 DUP3 GT ISZERO PUSH2 0x25EA JUMPI PUSH2 0x25E9 PUSH2 0x1FC8 JUMP JUMPDEST JUMPDEST SWAP3 SWAP2 POP POP JUMP JUMPDEST PUSH32 0x4E487B7100000000000000000000000000000000000000000000000000000000 PUSH0 MSTORE PUSH1 0x12 PUSH1 0x4 MSTORE PUSH1 0x24 PUSH0 REVERT JUMPDEST PUSH0 PUSH2 0x2627 DUP3 PUSH2 0x1653 JUMP JUMPDEST SWAP2 POP PUSH2 0x2632 DUP4 PUSH2 0x1653 JUMP JUMPDEST SWAP3 POP DUP3 PUSH2 0x2642 JUMPI PUSH2 0x2641 PUSH2 0x25F0 JUMP JUMPDEST JUMPDEST DUP3 DUP3 DIV SWAP1 POP SWAP3 SWAP2 POP POP JUMP JUMPDEST PUSH0 PUSH1 0x40 DUP3 ADD SWAP1 POP PUSH2 0x2660 PUSH0 DUP4 ADD DUP6 PUSH2 0x16E0 JUMP JUMPDEST PUSH2 0x266D PUSH1 0x20 DUP4 ADD DUP5 PUSH2 0x16E0 JUMP JUMPDEST SWAP4 SWAP3 POP POP POP JUMP JUMPDEST PUSH32 0x47696754727573743A20476967206D75737420626520696E2041636365707465 PUSH0 DUP3 ADD MSTORE PUSH32 0x64207374617475732E0000000000000000000000000000000000000000000000 PUSH1 0x20 DUP3 ADD MSTORE POP JUMP JUMPDEST PUSH0 PUSH2 0x26CE PUSH1 0x29 DUP4 PUSH2 0x177C JUMP JUMPDEST SWAP2 POP PUSH2 0x26D9 DUP3 PUSH2 0x2674 JUMP JUMPDEST PUSH1 0x40 DUP3 ADD SWAP1 POP SWAP2 SWAP1 POP JUMP JUMPDEST PUSH0 PUSH1 0x20 DUP3 ADD SWAP1 POP DUP2 DUP2 SUB PUSH0 DUP4 ADD MSTORE PUSH2 0x26FB DUP2 PUSH2 0x26C2 JUMP JUMPDEST SWAP1 POP SWAP2 SWAP1 POP JUMP JUMPDEST PUSH32 0x47696754727573743A204F6E6C79207468652061737369676E656420776F726B PUSH0 DUP3 ADD MSTORE PUSH32 0x65722063616E20636F6D706C65746520746865206769672E0000000000000000 PUSH1 0x20 DUP3 ADD MSTORE POP JUMP JUMPDEST PUSH0 PUSH2 0x275C PUSH1 0x38 DUP4 PUSH2 0x177C JUMP JUMPDEST SWAP2 POP PUSH2 0x2767 DUP3 PUSH2 0x2702 JUMP JUMPDEST PUSH1 0x40 DUP3 ADD SWAP1 POP SWAP2 SWAP1 POP JUMP JUMPDEST PUSH0 PUSH1 0x20 DUP3 ADD SWAP1 POP DUP2 DUP2 SUB PUSH0 DUP4 ADD MSTORE PUSH2 0x2789 DUP2 PUSH2 0x2750 JUMP JUMPDEST SWAP1 POP SWAP2 SWAP1 POP JUMP INVALID LOG2 PUSH5 0x6970667358 0x22 SLT KECCAK256 SHR XOR CALL 0xD8 RJUMPI 0xBCDD PUSH21 0xDD76AD16D2380C31B9852BFB3B352C3A849E97160F DUP9 0xC0 0xBA PUSH5 0x736F6C6343 STOP ADDMOD 0x1E STOP CALLER "
		},
		"gasEstimates": {
			"creation": {
				"codeDepositCost": "2036400",
				"executionCost": "24267",
				"totalCost": "2060667"
			},
			"external": {
				"acceptGig(uint256)": "57353",
				"completeGig(uint256)": "30437",
				"confirmGigAndPay(uint256)": "infinite",
				"createGig(string,uint256)": "infinite",
				"getGigStatus(uint256)": "2904",
				"getUserReputation(address)": "infinite",
				"gigs(uint256)": "infinite",
				"nextGigId()": "2470",
				"rateUser(uint256,address,uint256)": "infinite",
				"registerUser(uint8)": "28857",
				"users(address)": "infinite"
			}
		},
		"methodIdentifiers": {
			"acceptGig(uint256)": "578114dc",
			"completeGig(uint256)": "d1846924",
			"confirmGigAndPay(uint256)": "8864de05",
			"createGig(string,uint256)": "22d638d5",
			"getGigStatus(uint256)": "86ffeb27",
			"getUserReputation(address)": "baccbfdb",
			"gigs(uint256)": "5e3fbdc8",
			"nextGigId()": "55ab6ba3",
			"rateUser(uint256,address,uint256)": "a10543fc",
			"registerUser(uint8)": "02b8c8cd",
			"users(address)": "a87430ba"
		}
	},
	"abi": [
		{
			"anonymous": false,
			"inputs": [
				{
					"indexed": true,
					"internalType": "uint256",
					"name": "gigId",
					"type": "uint256"
				},
				{
					"indexed": true,
					"internalType": "address",
					"name": "worker",
					"type": "address"
				}
			],
			"name": "GigAccepted",
			"type": "event"
		},
		{
			"anonymous": false,
			"inputs": [
				{
					"indexed": true,
					"internalType": "uint256",
					"name": "gigId",
					"type": "uint256"
				}
			],
			"name": "GigCompleted",
			"type": "event"
		},
		{
			"anonymous": false,
			"inputs": [
				{
					"indexed": true,
					"internalType": "uint256",
					"name": "gigId",
					"type": "uint256"
				}
			],
			"name": "GigConfirmed",
			"type": "event"
		},
		{
			"anonymous": false,
			"inputs": [
				{
					"indexed": true,
					"internalType": "uint256",
					"name": "gigId",
					"type": "uint256"
				},
				{
					"indexed": true,
					"internalType": "address",
					"name": "contractor",
					"type": "address"
				},
				{
					"indexed": false,
					"internalType": "uint256",
					"name": "fee",
					"type": "uint256"
				}
			],
			"name": "GigCreated",
			"type": "event"
		},
		{
			"anonymous": false,
			"inputs": [
				{
					"indexed": true,
					"internalType": "uint256",
					"name": "gigId",
					"type": "uint256"
				},
				{
					"indexed": true,
					"internalType": "address",
					"name": "worker",
					"type": "address"
				},
				{
					"indexed": false,
					"internalType": "uint256",
					"name": "amount",
					"type": "uint256"
				}
			],
			"name": "PaymentSent",
			"type": "event"
		},
		{
			"anonymous": false,
			"inputs": [
				{
					"indexed": true,
					"internalType": "address",
					"name": "rater",
					"type": "address"
				},
				{
					"indexed": true,
					"internalType": "address",
					"name": "ratedUser",
					"type": "address"
				},
				{
					"indexed": false,
					"internalType": "uint256",
					"name": "rating",
					"type": "uint256"
				},
				{
					"indexed": false,
					"internalType": "uint256",
					"name": "newReputationScore",
					"type": "uint256"
				}
			],
			"name": "UserRated",
			"type": "event"
		},
		{
			"anonymous": false,
			"inputs": [
				{
					"indexed": true,
					"internalType": "address",
					"name": "userAddress",
					"type": "address"
				},
				{
					"indexed": false,
					"internalType": "enum GigTrust.UserRole",
					"name": "role",
					"type": "uint8"
				}
			],
			"name": "UserRegistered",
			"type": "event"
		},
		{
			"inputs": [
				{
					"internalType": "uint256",
					"name": "_gigId",
					"type": "uint256"
				}
			],
			"name": "acceptGig",
			"outputs": [],
			"stateMutability": "nonpayable",
			"type": "function"
		},
		{
			"inputs": [
				{
					"internalType": "uint256",
					"name": "_gigId",
					"type": "uint256"
				}
			],
			"name": "completeGig",
			"outputs": [],
			"stateMutability": "nonpayable",
			"type": "function"
		},
		{
			"inputs": [
				{
					"internalType": "uint256",
					"name": "_gigId",
					"type": "uint256"
				}
			],
			"name": "confirmGigAndPay",
			"outputs": [],
			"stateMutability": "nonpayable",
			"type": "function"
		},
		{
			"inputs": [
				{
					"internalType": "string",
					"name": "_description",
					"type": "string"
				},
				{
					"internalType": "uint256",
					"name": "_fee",
					"type": "uint256"
				}
			],
			"name": "createGig",
			"outputs": [],
			"stateMutability": "payable",
			"type": "function"
		},
		{
			"inputs": [
				{
					"internalType": "uint256",
					"name": "_gigId",
					"type": "uint256"
				}
			],
			"name": "getGigStatus",
			"outputs": [
				{
					"internalType": "enum GigTrust.GigStatus",
					"name": "",
					"type": "uint8"
				}
			],
			"stateMutability": "view",
			"type": "function"
		},
		{
			"inputs": [
				{
					"internalType": "address",
					"name": "_user",
					"type": "address"
				}
			],
			"name": "getUserReputation",
			"outputs": [
				{
					"internalType": "uint256",
					"name": "",
					"type": "uint256"
				}
			],
			"stateMutability": "view",
			"type": "function"
		},
		{
			"inputs": [
				{
					"internalType": "uint256",
					"name": "",
					"type": "uint256"
				}
			],
			"name": "gigs",
			"outputs": [
				{
					"internalType": "uint256",
					"name": "id",
					"type": "uint256"
				},
				{
					"internalType": "address payable",
					"name": "contractor",
					"type": "address"
				},
				{
					"internalType": "address payable",
					"name": "worker",
					"type": "address"
				},
				{
					"internalType": "string",
					"name": "description",
					"type": "string"
				},
				{
					"internalType": "uint256",
					"name": "fee",
					"type": "uint256"
				},
				{
					"internalType": "enum GigTrust.GigStatus",
					"name": "status",
					"type": "uint8"
				},
				{
					"internalType": "bool",
					"name": "contractorRatedWorker",
					"type": "bool"
				}
			],
			"stateMutability": "view",
			"type": "function"
		},
		{
			"inputs": [],
			"name": "nextGigId",
			"outputs": [
				{
					"internalType": "uint256",
					"name": "",
					"type": "uint256"
				}
			],
			"stateMutability": "view",
			"type": "function"
		},
		{
			"inputs": [
				{
					"internalType": "uint256",
					"name": "_gigId",
					"type": "uint256"
				},
				{
					"internalType": "address",
					"name": "_userToRate",
					"type": "address"
				},
				{
					"internalType": "uint256",
					"name": "_rating",
					"type": "uint256"
				}
			],
			"name": "rateUser",
			"outputs": [],
			"stateMutability": "nonpayable",
			"type": "function"
		},
		{
			"inputs": [
				{
					"internalType": "enum GigTrust.UserRole",
					"name": "_role",
					"type": "uint8"
				}
			],
			"name": "registerUser",
			"outputs": [],
			"stateMutability": "nonpayable",
			"type": "function"
		},
		{
			"inputs": [
				{
					"internalType": "address",
					"name": "",
					"type": "address"
				}
			],
			"name": "users",
			"outputs": [
				{
					"internalType": "enum GigTrust.UserRole",
					"name": "role",
					"type": "uint8"
				},
				{
					"internalType": "uint256",
					"name": "totalRating",
					"type": "uint256"
				},
				{
					"internalType": "uint256",
					"name": "reviewCount",
					"type": "uint256"
				}
			],
			"stateMutability": "view",
			"type": "function"
		}
	]
}